{
  "contractName": "LibraryDemo",
  "abi": [
    {
      "constant": true,
      "inputs": [
        {
          "internalType": "uint256",
          "name": "numberOne",
          "type": "uint256"
        },
        {
          "internalType": "uint256",
          "name": "numberTwo",
          "type": "uint256"
        }
      ],
      "name": "addTwoNumbers",
      "outputs": [
        {
          "internalType": "uint256",
          "name": "",
          "type": "uint256"
        }
      ],
      "payable": false,
      "stateMutability": "pure",
      "type": "function"
    }
  ],
  "bytecode": "0x60c8610025600b82828239805160001a60731461001857fe5b30600052607381538281f3fe730000000000000000000000000000000000000000301460806040526004361060335760003560e01c8063e2276f1c146038575b600080fd5b606b60048036036040811015604c57600080fd5b8101908080359060200190929190803590602001909291905050506081565b6040518082815260200191505060405180910390f35b6000808284019050809150509291505056fea265627a7a72315820424140ca7c7bedd9bb1e2d549d6dcc24ea6a61b8ae9df005f9b9c52620d5836864736f6c634300050c0032",
  "source": "pragma solidity >=0.4.21 <0.7.0;\r\n\r\nlibrary LibraryDemo\r\n{\r\n    function addTwoNumbers(uint numberOne, uint numberTwo)\r\n    public\r\n    pure\r\n    returns (uint)\r\n    {\r\n        uint sum = numberOne + numberTwo;\r\n        return sum;\r\n    }\r\n}",
  "sourcePath": "C:\\Users\\cjd9s\\OneDrive\\Documents\\Ethereum\\FinalProject\\contracts\\LibraryDemo.sol",
  "compiler": {
    "name": "solc",
    "version": "0.5.12+commit.7709ece9.Emscripten.clang"
  },
  "schemaVersion": "3.0.20",
  "updatedAt": "2020-01-29T16:06:36.399Z",
  "networkType": "ethereum",
  "devdoc": {
    "methods": {}
  },
  "userdoc": {
    "methods": {}
  }
}