{
  "contractName": "Marketplace",
  "abi": [
    {
      "inputs": [],
      "payable": false,
      "stateMutability": "nonpayable",
      "type": "constructor"
    },
    {
      "anonymous": false,
      "inputs": [
        {
          "indexed": false,
          "internalType": "address",
          "name": "newAdmin",
          "type": "address"
        }
      ],
      "name": "adminAdded",
      "type": "event"
    },
    {
      "anonymous": false,
      "inputs": [
        {
          "indexed": false,
          "internalType": "address",
          "name": "storeOwner",
          "type": "address"
        },
        {
          "indexed": false,
          "internalType": "uint256",
          "name": "store",
          "type": "uint256"
        },
        {
          "indexed": false,
          "internalType": "uint256",
          "name": "sku",
          "type": "uint256"
        },
        {
          "indexed": false,
          "internalType": "uint256",
          "name": "qty",
          "type": "uint256"
        }
      ],
      "name": "productBought",
      "type": "event"
    },
    {
      "anonymous": false,
      "inputs": [
        {
          "indexed": false,
          "internalType": "address",
          "name": "owner",
          "type": "address"
        },
        {
          "indexed": false,
          "internalType": "string",
          "name": "name",
          "type": "string"
        },
        {
          "indexed": false,
          "internalType": "string",
          "name": "description",
          "type": "string"
        }
      ],
      "name": "storeCreated",
      "type": "event"
    },
    {
      "constant": true,
      "inputs": [
        {
          "internalType": "address",
          "name": "",
          "type": "address"
        }
      ],
      "name": "adminMapping",
      "outputs": [
        {
          "internalType": "bool",
          "name": "adminOrNot",
          "type": "bool"
        },
        {
          "internalType": "uint256",
          "name": "arrayIndex",
          "type": "uint256"
        }
      ],
      "payable": false,
      "stateMutability": "view",
      "type": "function"
    },
    {
      "constant": true,
      "inputs": [
        {
          "internalType": "address",
          "name": "",
          "type": "address"
        }
      ],
      "name": "ownerMapping",
      "outputs": [
        {
          "internalType": "bool",
          "name": "ownerOrNot",
          "type": "bool"
        },
        {
          "internalType": "uint256",
          "name": "arrayIndex",
          "type": "uint256"
        },
        {
          "internalType": "uint256",
          "name": "balance",
          "type": "uint256"
        }
      ],
      "payable": false,
      "stateMutability": "view",
      "type": "function"
    },
    {
      "constant": true,
      "inputs": [
        {
          "internalType": "address",
          "name": "_ownerAddress",
          "type": "address"
        }
      ],
      "name": "getOwnerArrayMapping",
      "outputs": [
        {
          "internalType": "bool",
          "name": "ownerOrNot",
          "type": "bool"
        },
        {
          "internalType": "uint256",
          "name": "arrayIndex",
          "type": "uint256"
        }
      ],
      "payable": false,
      "stateMutability": "view",
      "type": "function"
    },
    {
      "constant": true,
      "inputs": [],
      "name": "getOwnerArray",
      "outputs": [
        {
          "internalType": "address[]",
          "name": "",
          "type": "address[]"
        }
      ],
      "payable": false,
      "stateMutability": "view",
      "type": "function"
    },
    {
      "constant": true,
      "inputs": [
        {
          "internalType": "address",
          "name": "_adminAddress",
          "type": "address"
        }
      ],
      "name": "getAdminArrayMapping",
      "outputs": [
        {
          "internalType": "bool",
          "name": "adminOrNot",
          "type": "bool"
        },
        {
          "internalType": "uint256",
          "name": "arrayIndex",
          "type": "uint256"
        }
      ],
      "payable": false,
      "stateMutability": "view",
      "type": "function"
    },
    {
      "constant": true,
      "inputs": [],
      "name": "getAdminArray",
      "outputs": [
        {
          "internalType": "address[]",
          "name": "",
          "type": "address[]"
        }
      ],
      "payable": false,
      "stateMutability": "view",
      "type": "function"
    },
    {
      "constant": false,
      "inputs": [
        {
          "internalType": "address",
          "name": "_newOwnerAddress",
          "type": "address"
        }
      ],
      "name": "addOwner",
      "outputs": [],
      "payable": false,
      "stateMutability": "nonpayable",
      "type": "function"
    },
    {
      "constant": false,
      "inputs": [
        {
          "internalType": "address",
          "name": "_currentOwnerAddress",
          "type": "address"
        }
      ],
      "name": "removeOwner",
      "outputs": [],
      "payable": false,
      "stateMutability": "nonpayable",
      "type": "function"
    },
    {
      "constant": false,
      "inputs": [
        {
          "internalType": "address",
          "name": "_newAdminAddress",
          "type": "address"
        }
      ],
      "name": "addAdmin",
      "outputs": [],
      "payable": false,
      "stateMutability": "nonpayable",
      "type": "function"
    },
    {
      "constant": false,
      "inputs": [
        {
          "internalType": "address",
          "name": "_currentAdminAddress",
          "type": "address"
        }
      ],
      "name": "removeAdmin",
      "outputs": [],
      "payable": false,
      "stateMutability": "nonpayable",
      "type": "function"
    },
    {
      "constant": false,
      "inputs": [
        {
          "internalType": "string",
          "name": "_name",
          "type": "string"
        },
        {
          "internalType": "string",
          "name": "_description",
          "type": "string"
        }
      ],
      "name": "addStore",
      "outputs": [],
      "payable": false,
      "stateMutability": "nonpayable",
      "type": "function"
    },
    {
      "constant": false,
      "inputs": [
        {
          "internalType": "uint256",
          "name": "removeStoreIndex",
          "type": "uint256"
        }
      ],
      "name": "removeStore",
      "outputs": [],
      "payable": false,
      "stateMutability": "nonpayable",
      "type": "function"
    },
    {
      "constant": true,
      "inputs": [],
      "name": "getStoreArrayLength",
      "outputs": [
        {
          "internalType": "uint256",
          "name": "",
          "type": "uint256"
        }
      ],
      "payable": false,
      "stateMutability": "view",
      "type": "function"
    },
    {
      "constant": false,
      "inputs": [
        {
          "internalType": "uint256",
          "name": "_storeIndex",
          "type": "uint256"
        },
        {
          "internalType": "uint256",
          "name": "_sku",
          "type": "uint256"
        },
        {
          "internalType": "string",
          "name": "_description",
          "type": "string"
        },
        {
          "internalType": "uint256",
          "name": "_price",
          "type": "uint256"
        },
        {
          "internalType": "uint256",
          "name": "_qty",
          "type": "uint256"
        }
      ],
      "name": "addProduct",
      "outputs": [],
      "payable": false,
      "stateMutability": "nonpayable",
      "type": "function"
    },
    {
      "constant": true,
      "inputs": [
        {
          "internalType": "uint256",
          "name": "_storeIndex",
          "type": "uint256"
        },
        {
          "internalType": "uint256",
          "name": "_sku",
          "type": "uint256"
        }
      ],
      "name": "viewProduct",
      "outputs": [
        {
          "internalType": "string",
          "name": "",
          "type": "string"
        },
        {
          "internalType": "uint256",
          "name": "",
          "type": "uint256"
        },
        {
          "internalType": "uint256",
          "name": "",
          "type": "uint256"
        }
      ],
      "payable": false,
      "stateMutability": "view",
      "type": "function"
    },
    {
      "constant": false,
      "inputs": [
        {
          "internalType": "uint256",
          "name": "_storeIndex",
          "type": "uint256"
        },
        {
          "internalType": "uint256",
          "name": "_sku",
          "type": "uint256"
        }
      ],
      "name": "removeProduct",
      "outputs": [],
      "payable": false,
      "stateMutability": "nonpayable",
      "type": "function"
    },
    {
      "constant": false,
      "inputs": [
        {
          "internalType": "uint256",
          "name": "_storeIndex",
          "type": "uint256"
        },
        {
          "internalType": "uint256",
          "name": "_sku",
          "type": "uint256"
        },
        {
          "internalType": "uint256",
          "name": "_newPrice",
          "type": "uint256"
        }
      ],
      "name": "changeProductPrice",
      "outputs": [],
      "payable": false,
      "stateMutability": "nonpayable",
      "type": "function"
    },
    {
      "constant": false,
      "inputs": [
        {
          "internalType": "address payable",
          "name": "_storeOwner",
          "type": "address"
        },
        {
          "internalType": "uint256",
          "name": "_storeIndex",
          "type": "uint256"
        },
        {
          "internalType": "uint256",
          "name": "_sku",
          "type": "uint256"
        },
        {
          "internalType": "uint256",
          "name": "_qty",
          "type": "uint256"
        }
      ],
      "name": "buyProduct",
      "outputs": [],
      "payable": true,
      "stateMutability": "payable",
      "type": "function"
    },
    {
      "constant": true,
      "inputs": [],
      "name": "viewOwnerContractBalance",
      "outputs": [
        {
          "internalType": "uint256",
          "name": "",
          "type": "uint256"
        }
      ],
      "payable": false,
      "stateMutability": "view",
      "type": "function"
    },
    {
      "constant": false,
      "inputs": [],
      "name": "withdrawContractBalance",
      "outputs": [],
      "payable": true,
      "stateMutability": "payable",
      "type": "function"
    }
  ],
  "bytecode": "0x608060405234801561001057600080fd5b50336000806101000a81548173ffffffffffffffffffffffffffffffffffffffff021916908373ffffffffffffffffffffffffffffffffffffffff160217905550613005806100606000396000f3fe60806040526004361061011f5760003560e01c806380dcbff1116100a0578063ced71d8311610064578063ced71d83146106ae578063cf1be85f1461071e578063e205205d1461076d578063ed2b77e6146107e4578063ed48719c146108545761011f565b806380dcbff1146105705780639bc0432c146105dc578063aafba9ce14610617578063b74e0b0d14610679578063bfab3db9146106a45761011f565b806366b430cd116100e757806366b430cd1461036b5780636ec88ace1461043757806370480275146104625780637065cb48146104b35780637a55207b146105045761011f565b80631312f1c414610124578063173825d9146101945780631785f53c146101e5578063295a5434146102365780635287d53514610326575b600080fd5b34801561013057600080fd5b506101736004803603602081101561014757600080fd5b81019080803573ffffffffffffffffffffffffffffffffffffffff1690602001909291905050506109b3565b60405180831515151581526020018281526020019250505060405180910390f35b3480156101a057600080fd5b506101e3600480360360208110156101b757600080fd5b81019080803573ffffffffffffffffffffffffffffffffffffffff169060200190929190505050610b1b565b005b3480156101f157600080fd5b506102346004803603602081101561020857600080fd5b81019080803573ffffffffffffffffffffffffffffffffffffffff169060200190929190505050610d9b565b005b34801561024257600080fd5b50610324600480360360a081101561025957600080fd5b8101908080359060200190929190803590602001909291908035906020019064010000000081111561028a57600080fd5b82018360208201111561029c57600080fd5b803590602001918460018302840111640100000000831117156102be57600080fd5b91908080601f016020809104026020016040519081016040528093929190818152602001838380828437600081840152601f19601f8201169050808301925050505050505091929192908035906020019092919080359060200190929190505050611010565b005b34801561033257600080fd5b506103696004803603604081101561034957600080fd5b81019080803590602001909291908035906020019092919050505061124c565b005b34801561037757600080fd5b506103ae6004803603604081101561038e57600080fd5b810190808035906020019092919080359060200190929190505050611496565b6040518080602001848152602001838152602001828103825285818151815260200191508051906020019080838360005b838110156103fa5780820151818401526020810190506103df565b50505050905090810190601f1680156104275780820380516001836020036101000a031916815260200191505b5094505050505060405180910390f35b34801561044357600080fd5b5061044c61176b565b6040518082815260200191505060405180910390f35b34801561046e57600080fd5b506104b16004803603602081101561048557600080fd5b81019080803573ffffffffffffffffffffffffffffffffffffffff169060200190929190505050611884565b005b3480156104bf57600080fd5b50610502600480360360208110156104d657600080fd5b81019080803573ffffffffffffffffffffffffffffffffffffffff169060200190929190505050611ab9565b005b34801561051057600080fd5b50610519611c92565b6040518080602001828103825283818151815260200191508051906020019060200280838360005b8381101561055c578082015181840152602081019050610541565b505050509050019250505060405180910390f35b34801561057c57600080fd5b50610585611de9565b6040518080602001828103825283818151815260200191508051906020019060200280838360005b838110156105c85780820151818401526020810190506105ad565b505050509050019250505060405180910390f35b3480156105e857600080fd5b50610615600480360360208110156105ff57600080fd5b8101908080359060200190929190505050611f39565b005b6106776004803603608081101561062d57600080fd5b81019080803573ffffffffffffffffffffffffffffffffffffffff1690602001909291908035906020019092919080359060200190929190803590602001909291905050506123e7565b005b34801561068557600080fd5b5061068e612535565b6040518082815260200191505060405180910390f35b6106ac612648565b005b3480156106ba57600080fd5b506106fd600480360360208110156106d157600080fd5b81019080803573ffffffffffffffffffffffffffffffffffffffff1690602001909291905050506127ea565b60405180831515151581526020018281526020019250505060405180910390f35b34801561072a57600080fd5b5061076b6004803603606081101561074157600080fd5b8101908080359060200190929190803590602001909291908035906020019092919050505061294b565b005b34801561077957600080fd5b506107bc6004803603602081101561079057600080fd5b81019080803573ffffffffffffffffffffffffffffffffffffffff169060200190929190505050612a8d565b6040518084151515158152602001838152602001828152602001935050505060405180910390f35b3480156107f057600080fd5b506108336004803603602081101561080757600080fd5b81019080803573ffffffffffffffffffffffffffffffffffffffff169060200190929190505050612ac4565b60405180831515151581526020018281526020019250505060405180910390f35b34801561086057600080fd5b506109b16004803603604081101561087757600080fd5b810190808035906020019064010000000081111561089457600080fd5b8201836020820111156108a657600080fd5b803590602001918460018302840111640100000000831117156108c857600080fd5b91908080601f016020809104026020016040519081016040528093929190818152602001838380828437600081840152601f19601f8201169050808301925050505050505091929192908035906020019064010000000081111561092b57600080fd5b82018360208201111561093d57600080fd5b8035906020019184600183028401116401000000008311171561095f57600080fd5b91908080601f016020809104026020016040519081016040528093929190818152602001838380828437600081840152601f19601f820116905080830192505050505050509192919290505050612af5565b005b60008060011515600460003373ffffffffffffffffffffffffffffffffffffffff1673ffffffffffffffffffffffffffffffffffffffff16815260200190815260200160002060000160009054906101000a900460ff16151514610a7f576040517f08c379a000000000000000000000000000000000000000000000000000000000815260040180806020018281038252600c8152602001807f4e6f7420616e2061646d696e000000000000000000000000000000000000000081525060200191505060405180910390fd5b600360008473ffffffffffffffffffffffffffffffffffffffff1673ffffffffffffffffffffffffffffffffffffffff16815260200190815260200160002060000160009054906101000a900460ff169150600360008473ffffffffffffffffffffffffffffffffffffffff1673ffffffffffffffffffffffffffffffffffffffff168152602001908152602001600020600101549050915091565b60011515600460003373ffffffffffffffffffffffffffffffffffffffff1673ffffffffffffffffffffffffffffffffffffffff16815260200190815260200160002060000160009054906101000a900460ff16151514610be4576040517f08c379a000000000000000000000000000000000000000000000000000000000815260040180806020018281038252600c8152602001807f4e6f7420616e2061646d696e000000000000000000000000000000000000000081525060200191505060405180910390fd5b6000600360008373ffffffffffffffffffffffffffffffffffffffff1673ffffffffffffffffffffffffffffffffffffffff16815260200190815260200160002060000160006101000a81548160ff021916908315150217905550600260016002805490500381548110610c5457fe5b9060005260206000200160009054906101000a900473ffffffffffffffffffffffffffffffffffffffff166002600360008473ffffffffffffffffffffffffffffffffffffffff1673ffffffffffffffffffffffffffffffffffffffff1681526020019081526020016000206001015481548110610cce57fe5b9060005260206000200160006101000a81548173ffffffffffffffffffffffffffffffffffffffff021916908373ffffffffffffffffffffffffffffffffffffffff160217905550600260016002805490500381548110610d2b57fe5b9060005260206000200160006101000a81549073ffffffffffffffffffffffffffffffffffffffff02191690556002805480610d6357fe5b6001900381819060005260206000200160006101000a81549073ffffffffffffffffffffffffffffffffffffffff0219169055905550565b3373ffffffffffffffffffffffffffffffffffffffff166000809054906101000a900473ffffffffffffffffffffffffffffffffffffffff1673ffffffffffffffffffffffffffffffffffffffff1614610e5d576040517f08c379a00000000000000000000000000000000000000000000000000000000081526004018080602001828103825260128152602001807f4e6f7420746865206f726967696e61746f72000000000000000000000000000081525060200191505060405180910390fd5b6000600460008373ffffffffffffffffffffffffffffffffffffffff1673ffffffffffffffffffffffffffffffffffffffff16815260200190815260200160002060000160006101000a81548160ff02191690831515021790555060018080805490500381548110610ecb57fe5b9060005260206000200160009054906101000a900473ffffffffffffffffffffffffffffffffffffffff166001600460008473ffffffffffffffffffffffffffffffffffffffff1673ffffffffffffffffffffffffffffffffffffffff1681526020019081526020016000206001015481548110610f4557fe5b9060005260206000200160006101000a81548173ffffffffffffffffffffffffffffffffffffffff021916908373ffffffffffffffffffffffffffffffffffffffff16021790555060018080805490500381548110610fa057fe5b9060005260206000200160006101000a81549073ffffffffffffffffffffffffffffffffffffffff02191690556001805480610fd857fe5b6001900381819060005260206000200160006101000a81549073ffffffffffffffffffffffffffffffffffffffff0219169055905550565b60011515600360003373ffffffffffffffffffffffffffffffffffffffff1673ffffffffffffffffffffffffffffffffffffffff16815260200190815260200160002060000160009054906101000a900460ff161515146110d9576040517f08c379a000000000000000000000000000000000000000000000000000000000815260040180806020018281038252600c8152602001807f4e6f7420616e206f776e6572000000000000000000000000000000000000000081525060200191505060405180910390fd5b82600560003373ffffffffffffffffffffffffffffffffffffffff1673ffffffffffffffffffffffffffffffffffffffff168152602001908152602001600020868154811061112457fe5b90600052602060002090600302016002016000868152602001908152602001600020600101908051906020019061115c929190612dc2565b5081600560003373ffffffffffffffffffffffffffffffffffffffff1673ffffffffffffffffffffffffffffffffffffffff16815260200190815260200160002086815481106111a857fe5b906000526020600020906003020160020160008681526020019081526020016000206000018190555080600560003373ffffffffffffffffffffffffffffffffffffffff1673ffffffffffffffffffffffffffffffffffffffff168152602001908152602001600020868154811061121c57fe5b90600052602060002090600302016002016000868152602001908152602001600020600201819055505050505050565b60011515600360003373ffffffffffffffffffffffffffffffffffffffff1673ffffffffffffffffffffffffffffffffffffffff16815260200190815260200160002060000160009054906101000a900460ff16151514611315576040517f08c379a000000000000000000000000000000000000000000000000000000000815260040180806020018281038252600c8152602001807f4e6f7420616e206f776e6572000000000000000000000000000000000000000081525060200191505060405180910390fd5b60405180602001604052806000815250600560003373ffffffffffffffffffffffffffffffffffffffff1673ffffffffffffffffffffffffffffffffffffffff168152602001908152602001600020838154811061136f57fe5b9060005260206000209060030201600201600083815260200190815260200160002060010190805190602001906113a7929190612dc2565b506000600560003373ffffffffffffffffffffffffffffffffffffffff1673ffffffffffffffffffffffffffffffffffffffff16815260200190815260200160002083815481106113f457fe5b90600052602060002090600302016002016000838152602001908152602001600020600001819055506000600560003373ffffffffffffffffffffffffffffffffffffffff1673ffffffffffffffffffffffffffffffffffffffff168152602001908152602001600020838154811061146957fe5b90600052602060002090600302016002016000838152602001908152602001600020600201819055505050565b606060008060011515600360003373ffffffffffffffffffffffffffffffffffffffff1673ffffffffffffffffffffffffffffffffffffffff16815260200190815260200160002060000160009054906101000a900460ff16151514611564576040517f08c379a000000000000000000000000000000000000000000000000000000000815260040180806020018281038252600c8152602001807f4e6f7420616e206f776e6572000000000000000000000000000000000000000081525060200191505060405180910390fd5b6060600560003373ffffffffffffffffffffffffffffffffffffffff1673ffffffffffffffffffffffffffffffffffffffff16815260200190815260200160002086815481106115b057fe5b906000526020600020906003020160020160008681526020019081526020016000206001018054600181600116156101000203166002900480601f0160208091040260200160405190810160405280929190818152602001828054600181600116156101000203166002900480156116695780601f1061163e57610100808354040283529160200191611669565b820191906000526020600020905b81548152906001019060200180831161164c57829003601f168201915b505050505090506000600560003373ffffffffffffffffffffffffffffffffffffffff1673ffffffffffffffffffffffffffffffffffffffff16815260200190815260200160002087815481106116bc57fe5b906000526020600020906003020160020160008781526020019081526020016000206000015490506000600560003373ffffffffffffffffffffffffffffffffffffffff1673ffffffffffffffffffffffffffffffffffffffff168152602001908152602001600020888154811061173057fe5b906000526020600020906003020160020160008881526020019081526020016000206002015490508282829550955095505050509250925092565b600060011515600360003373ffffffffffffffffffffffffffffffffffffffff1673ffffffffffffffffffffffffffffffffffffffff16815260200190815260200160002060000160009054906101000a900460ff16151514611836576040517f08c379a000000000000000000000000000000000000000000000000000000000815260040180806020018281038252600c8152602001807f4e6f7420616e206f776e6572000000000000000000000000000000000000000081525060200191505060405180910390fd5b6000600360003373ffffffffffffffffffffffffffffffffffffffff1673ffffffffffffffffffffffffffffffffffffffff1681526020019081526020016000206002015490508091505090565b3373ffffffffffffffffffffffffffffffffffffffff166000809054906101000a900473ffffffffffffffffffffffffffffffffffffffff1673ffffffffffffffffffffffffffffffffffffffff1614611946576040517f08c379a00000000000000000000000000000000000000000000000000000000081526004018080602001828103825260128152602001807f4e6f7420746865206f726967696e61746f72000000000000000000000000000081525060200191505060405180910390fd5b600180549050600460008373ffffffffffffffffffffffffffffffffffffffff1673ffffffffffffffffffffffffffffffffffffffff168152602001908152602001600020600101819055506001600460008373ffffffffffffffffffffffffffffffffffffffff1673ffffffffffffffffffffffffffffffffffffffff16815260200190815260200160002060000160006101000a81548160ff02191690831515021790555060018190806001815401808255809150509060018203906000526020600020016000909192909190916101000a81548173ffffffffffffffffffffffffffffffffffffffff021916908373ffffffffffffffffffffffffffffffffffffffff160217905550507fefcbb6030dbeda3448a657cc462d3fde6f3b78e2710bd7b2d9e2ab358a12e17081604051808273ffffffffffffffffffffffffffffffffffffffff1673ffffffffffffffffffffffffffffffffffffffff16815260200191505060405180910390a150565b60011515600460003373ffffffffffffffffffffffffffffffffffffffff1673ffffffffffffffffffffffffffffffffffffffff16815260200190815260200160002060000160009054906101000a900460ff16151514611b82576040517f08c379a000000000000000000000000000000000000000000000000000000000815260040180806020018281038252600c8152602001807f4e6f7420616e2061646d696e000000000000000000000000000000000000000081525060200191505060405180910390fd5b600280549050600360008373ffffffffffffffffffffffffffffffffffffffff1673ffffffffffffffffffffffffffffffffffffffff168152602001908152602001600020600101819055506001600360008373ffffffffffffffffffffffffffffffffffffffff1673ffffffffffffffffffffffffffffffffffffffff16815260200190815260200160002060000160006101000a81548160ff02191690831515021790555060028190806001815401808255809150509060018203906000526020600020016000909192909190916101000a81548173ffffffffffffffffffffffffffffffffffffffff021916908373ffffffffffffffffffffffffffffffffffffffff1602179055505050565b606060011515600460003373ffffffffffffffffffffffffffffffffffffffff1673ffffffffffffffffffffffffffffffffffffffff16815260200190815260200160002060000160009054906101000a900460ff16151514611d5d576040517f08c379a000000000000000000000000000000000000000000000000000000000815260040180806020018281038252600c8152602001807f4e6f7420616e2061646d696e000000000000000000000000000000000000000081525060200191505060405180910390fd5b6002805480602002602001604051908101604052809291908181526020018280548015611ddf57602002820191906000526020600020905b8160009054906101000a900473ffffffffffffffffffffffffffffffffffffffff1673ffffffffffffffffffffffffffffffffffffffff1681526020019060010190808311611d95575b5050505050905090565b60603373ffffffffffffffffffffffffffffffffffffffff166000809054906101000a900473ffffffffffffffffffffffffffffffffffffffff1673ffffffffffffffffffffffffffffffffffffffff1614611ead576040517f08c379a00000000000000000000000000000000000000000000000000000000081526004018080602001828103825260128152602001807f4e6f7420746865206f726967696e61746f72000000000000000000000000000081525060200191505060405180910390fd5b6001805480602002602001604051908101604052809291908181526020018280548015611f2f57602002820191906000526020600020905b8160009054906101000a900473ffffffffffffffffffffffffffffffffffffffff1673ffffffffffffffffffffffffffffffffffffffff1681526020019060010190808311611ee5575b5050505050905090565b60011515600360003373ffffffffffffffffffffffffffffffffffffffff1673ffffffffffffffffffffffffffffffffffffffff16815260200190815260200160002060000160009054906101000a900460ff16151514612002576040517f08c379a000000000000000000000000000000000000000000000000000000000815260040180806020018281038252600c8152602001807f4e6f7420616e206f776e6572000000000000000000000000000000000000000081525060200191505060405180910390fd5b60008114801561205457506001600560003373ffffffffffffffffffffffffffffffffffffffff1673ffffffffffffffffffffffffffffffffffffffff16815260200190815260200160002080549050145b1561215a57600560003373ffffffffffffffffffffffffffffffffffffffff1673ffffffffffffffffffffffffffffffffffffffff16815260200190815260200160002081815481106120a357fe5b9060005260206000209060030201600080820160006120c29190612e42565b6001820160006120d29190612e42565b5050600560003373ffffffffffffffffffffffffffffffffffffffff1673ffffffffffffffffffffffffffffffffffffffff16815260200190815260200160002080548061211c57fe5b6001900381819060005260206000209060030201600080820160006121419190612e42565b6001820160006121519190612e42565b505090556123e4565b600560003373ffffffffffffffffffffffffffffffffffffffff1673ffffffffffffffffffffffffffffffffffffffff1681526020019081526020016000206001600560003373ffffffffffffffffffffffffffffffffffffffff1673ffffffffffffffffffffffffffffffffffffffff1681526020019081526020016000208054905003815481106121e957fe5b9060005260206000209060030201600560003373ffffffffffffffffffffffffffffffffffffffff1673ffffffffffffffffffffffffffffffffffffffff168152602001908152602001600020828154811061224157fe5b906000526020600020906003020160008201816000019080546001816001161561010002031660029004612276929190612e8a565b506001820181600101908054600181600116156101000203166002900461229e929190612e8a565b50905050600560003373ffffffffffffffffffffffffffffffffffffffff1673ffffffffffffffffffffffffffffffffffffffff1681526020019081526020016000206001600560003373ffffffffffffffffffffffffffffffffffffffff1673ffffffffffffffffffffffffffffffffffffffff16815260200190815260200160002080549050038154811061233157fe5b9060005260206000209060030201600080820160006123509190612e42565b6001820160006123609190612e42565b5050600560003373ffffffffffffffffffffffffffffffffffffffff1673ffffffffffffffffffffffffffffffffffffffff1681526020019081526020016000208054806123aa57fe5b6001900381819060005260206000209060030201600080820160006123cf9190612e42565b6001820160006123df9190612e42565b505090555b50565b80600560008673ffffffffffffffffffffffffffffffffffffffff1673ffffffffffffffffffffffffffffffffffffffff168152602001908152602001600020848154811061243257fe5b906000526020600020906003020160020160008481526020019081526020016000206002016000828254039250508190555034600360008673ffffffffffffffffffffffffffffffffffffffff1673ffffffffffffffffffffffffffffffffffffffff168152602001908152602001600020600201600082825401925050819055507fed1575163391e8e4c8b8873e0a67abd7805ee39f964e751caf32c3008593412e84848484604051808573ffffffffffffffffffffffffffffffffffffffff1673ffffffffffffffffffffffffffffffffffffffff16815260200184815260200183815260200182815260200194505050505060405180910390a150505050565b600060011515600460003373ffffffffffffffffffffffffffffffffffffffff1673ffffffffffffffffffffffffffffffffffffffff16815260200190815260200160002060000160009054906101000a900460ff16151514612600576040517f08c379a000000000000000000000000000000000000000000000000000000000815260040180806020018281038252600c8152602001807f4e6f7420616e2061646d696e000000000000000000000000000000000000000081525060200191505060405180910390fd5b600560003373ffffffffffffffffffffffffffffffffffffffff1673ffffffffffffffffffffffffffffffffffffffff16815260200190815260200160002080549050905090565b60011515600360003373ffffffffffffffffffffffffffffffffffffffff1673ffffffffffffffffffffffffffffffffffffffff16815260200190815260200160002060000160009054906101000a900460ff16151514612711576040517f08c379a000000000000000000000000000000000000000000000000000000000815260040180806020018281038252600c8152602001807f4e6f7420616e206f776e6572000000000000000000000000000000000000000081525060200191505060405180910390fd5b6000600360003373ffffffffffffffffffffffffffffffffffffffff1673ffffffffffffffffffffffffffffffffffffffff1681526020019081526020016000206002015490506000600360003373ffffffffffffffffffffffffffffffffffffffff1673ffffffffffffffffffffffffffffffffffffffff168152602001908152602001600020600201819055503373ffffffffffffffffffffffffffffffffffffffff166108fc829081150290604051600060405180830381858888f193505050501580156127e6573d6000803e3d6000fd5b5050565b6000803373ffffffffffffffffffffffffffffffffffffffff166000809054906101000a900473ffffffffffffffffffffffffffffffffffffffff1673ffffffffffffffffffffffffffffffffffffffff16146128af576040517f08c379a00000000000000000000000000000000000000000000000000000000081526004018080602001828103825260128152602001807f4e6f7420746865206f726967696e61746f72000000000000000000000000000081525060200191505060405180910390fd5b600460008473ffffffffffffffffffffffffffffffffffffffff1673ffffffffffffffffffffffffffffffffffffffff16815260200190815260200160002060000160009054906101000a900460ff169150600460008473ffffffffffffffffffffffffffffffffffffffff1673ffffffffffffffffffffffffffffffffffffffff168152602001908152602001600020600101549050915091565b60011515600360003373ffffffffffffffffffffffffffffffffffffffff1673ffffffffffffffffffffffffffffffffffffffff16815260200190815260200160002060000160009054906101000a900460ff16151514612a14576040517f08c379a000000000000000000000000000000000000000000000000000000000815260040180806020018281038252600c8152602001807f4e6f7420616e206f776e6572000000000000000000000000000000000000000081525060200191505060405180910390fd5b80600560003373ffffffffffffffffffffffffffffffffffffffff1673ffffffffffffffffffffffffffffffffffffffff1681526020019081526020016000208481548110612a5f57fe5b9060005260206000209060030201600201600084815260200190815260200160002060000181905550505050565b60036020528060005260406000206000915090508060000160009054906101000a900460ff16908060010154908060020154905083565b60046020528060005260406000206000915090508060000160009054906101000a900460ff16908060010154905082565b60011515600360003373ffffffffffffffffffffffffffffffffffffffff1673ffffffffffffffffffffffffffffffffffffffff16815260200190815260200160002060000160009054906101000a900460ff16151514612bbe576040517f08c379a000000000000000000000000000000000000000000000000000000000815260040180806020018281038252600c8152602001807f4e6f7420616e206f776e6572000000000000000000000000000000000000000081525060200191505060405180910390fd5b612bc6612f11565b828160000181905250818160200181905250600560003373ffffffffffffffffffffffffffffffffffffffff1673ffffffffffffffffffffffffffffffffffffffff16815260200190815260200160002081908060018154018082558091505090600182039060005260206000209060030201600090919290919091506000820151816000019080519060200190612c5f929190612f2b565b506020820151816001019080519060200190612c7c929190612f2b565b505050507fcd711cf03268663b6768b79e26d933c170ef96bb54f6300619e866b34a0a1376338484604051808473ffffffffffffffffffffffffffffffffffffffff1673ffffffffffffffffffffffffffffffffffffffff1681526020018060200180602001838103835285818151815260200191508051906020019080838360005b83811015612d1a578082015181840152602081019050612cff565b50505050905090810190601f168015612d475780820380516001836020036101000a031916815260200191505b50838103825284818151815260200191508051906020019080838360005b83811015612d80578082015181840152602081019050612d65565b50505050905090810190601f168015612dad5780820380516001836020036101000a031916815260200191505b509550505050505060405180910390a1505050565b828054600181600116156101000203166002900490600052602060002090601f016020900481019282601f10612e0357805160ff1916838001178555612e31565b82800160010185558215612e31579182015b82811115612e30578251825591602001919060010190612e15565b5b509050612e3e9190612fab565b5090565b50805460018160011615610100020316600290046000825580601f10612e685750612e87565b601f016020900490600052602060002090810190612e869190612fab565b5b50565b828054600181600116156101000203166002900490600052602060002090601f016020900481019282601f10612ec35780548555612f00565b82800160010185558215612f0057600052602060002091601f016020900482015b82811115612eff578254825591600101919060010190612ee4565b5b509050612f0d9190612fab565b5090565b604051806040016040528060608152602001606081525090565b828054600181600116156101000203166002900490600052602060002090601f016020900481019282601f10612f6c57805160ff1916838001178555612f9a565b82800160010185558215612f9a579182015b82811115612f99578251825591602001919060010190612f7e565b5b509050612fa79190612fab565b5090565b612fcd91905b80821115612fc9576000816000905550600101612fb1565b5090565b9056fea265627a7a72315820a107d406b79a1b9347a246ddba0761be7e503691a401ac28c87fcc89f0db6af964736f6c634300050c0032",
  "source": "pragma solidity >=0.4.21 <0.7.0;\r\n\r\nimport './LibraryDemo.sol';\r\n\r\ncontract Marketplace\r\n{\r\n    // a Product is a type that includes the price, desccription, and quantity\r\n    struct Product\r\n    {\r\n        uint price;\r\n        string description;\r\n        uint qty;\r\n    }\r\n\r\n    struct Store\r\n    {\r\n        string name;\r\n        string description;\r\n        mapping (uint => Product) skuToProducts;\r\n    }\r\n\r\n    struct OwnerInfo\r\n    {\r\n        bool ownerOrNot;\r\n        uint arrayIndex;\r\n        uint balance;\r\n    }\r\n\r\n    struct AdminInfo\r\n    {\r\n        bool adminOrNot;\r\n        uint arrayIndex;\r\n    }\r\n\r\n    // Address that originally deployed the contract and created the marketplace\r\n    // Only address able to add and remove admins\r\n    address originatorAddress;\r\n\r\n    // If there weren't an array of admin addresses, it wouldn't be possible to determine\r\n    // how many or who the admins were.\r\n    address[] adminArray;\r\n\r\n    // If there weren't an array of owner addresses, it wouldn't be possible to determine\r\n    // how many or who the owners were.\r\n    address[] ownerArray;\r\n\r\n    // We use a mapping to determine the addresses of valid owners instead of iterating\r\n    // through the array which could be expensive\r\n    mapping (address => OwnerInfo) public ownerMapping;\r\n\r\n    // We use a mapping to determine the addresses of valid admins instead of iterating\r\n    // through the array which could be expensive\r\n    mapping (address => AdminInfo) public adminMapping;\r\n\r\n    mapping (address => Store[]) ownersToStores;\r\n\r\n    modifier isOwner()\r\n    {\r\n        require (ownerMapping[msg.sender].ownerOrNot == true, 'Not an owner');\r\n        _;\r\n    }\r\n\r\n    modifier isOriginator()\r\n    {\r\n        require (originatorAddress == msg.sender, 'Not the originator');\r\n        _;\r\n    }\r\n\r\n    modifier isAdmin()\r\n    {\r\n        require (adminMapping[msg.sender].adminOrNot == true, 'Not an admin');\r\n        _;\r\n    }\r\n\r\n    event storeCreated(address owner, string name, string description);\r\n    event adminAdded(address newAdmin);\r\n    event productBought(address storeOwner, uint store, uint sku, uint qty);\r\n    // 1st mapping connects owner address with a mapping of unique IDs and corresponding\r\n    // storefront mappings\r\n    // 2nd mapping connects the unique ID of a storefront with a mapping of SKUs and\r\n    // corresponding products (Product struct)\r\n    // mapping (address => mapping (uint => mapping (uint => Product))) private stores;\r\n\r\n    constructor ()\r\n    public\r\n    {\r\n        originatorAddress = msg.sender;\r\n    }\r\n\r\n    function getOwnerArrayMapping(address _ownerAddress)\r\n    public\r\n    view\r\n    isAdmin\r\n    returns (bool ownerOrNot, uint arrayIndex)\r\n    {\r\n        ownerOrNot = ownerMapping[_ownerAddress].ownerOrNot;\r\n        arrayIndex = ownerMapping[_ownerAddress].arrayIndex;\r\n    }\r\n\r\n    function getOwnerArray()\r\n    public\r\n    view\r\n    isAdmin\r\n    returns (address[] memory)\r\n    {\r\n        return ownerArray;\r\n    }\r\n\r\n    function getAdminArrayMapping(address _adminAddress)\r\n    public\r\n    view\r\n    isOriginator\r\n    returns (bool adminOrNot, uint arrayIndex)\r\n    {\r\n        adminOrNot = adminMapping[_adminAddress].adminOrNot;\r\n        arrayIndex = adminMapping[_adminAddress].arrayIndex;\r\n    }\r\n\r\n    function getAdminArray()\r\n    public\r\n    view\r\n    isOriginator\r\n    returns (address[] memory)\r\n    {\r\n        return adminArray;\r\n    }\r\n\r\n    // function to add an address as true to the owners (store) mapping\r\n    function addOwner (address _newOwnerAddress)\r\n    public\r\n    isAdmin\r\n    {\r\n        // Adding current length of 'ownerArray' array to 'ownerMapping' mapping (OwnerInfo struct)\r\n        // I can use the length because that is what the index will be once added to the\r\n        // 'owner' array. The index is required for the 'removeOwner' function.\r\n        ownerMapping[_newOwnerAddress].arrayIndex = ownerArray.length;\r\n\r\n        // Changing 'ownerMapping' mapping to true for this address\r\n        ownerMapping[_newOwnerAddress].ownerOrNot = true;\r\n\r\n        // Pushing new owner address onto 'ownerArray' array\r\n        ownerArray.push(_newOwnerAddress);\r\n    }\r\n\r\n    function removeOwner (address _currentOwnerAddress)\r\n    public\r\n    isAdmin\r\n    {\r\n        ownerMapping[_currentOwnerAddress].ownerOrNot = false;\r\n\r\n        ownerArray[ownerMapping[_currentOwnerAddress].arrayIndex] = ownerArray[ownerArray.length-1];\r\n        delete ownerArray[ownerArray.length-1];\r\n        ownerArray.pop();\r\n    }\r\n\r\n    function addAdmin (address _newAdminAddress)\r\n    public\r\n    isOriginator\r\n    {\r\n        // Adding current length of 'owner' array to 'owners' mapping (OwnerInfo struct)\r\n        // I can use the length because that is what the index will be once added to the\r\n        // 'owner' array. The index is required for the 'removeOwner' function.\r\n        adminMapping[_newAdminAddress].arrayIndex = adminArray.length;\r\n\r\n        // Changing 'adminMapping' mapping to true for this address\r\n        adminMapping[_newAdminAddress].adminOrNot = true;\r\n\r\n        // Pushing new admin address onto 'adminArray' array\r\n        adminArray.push(_newAdminAddress);\r\n\r\n        emit adminAdded(_newAdminAddress);\r\n\r\n    }\r\n\r\n    function removeAdmin (address _currentAdminAddress)\r\n        public\r\n        isOriginator\r\n    {\r\n        adminMapping[_currentAdminAddress].adminOrNot = false;\r\n\r\n        adminArray[adminMapping[_currentAdminAddress].arrayIndex] = adminArray[adminArray.length-1];\r\n        delete adminArray[adminArray.length-1];\r\n        adminArray.pop();\r\n    }\r\n\r\n\r\n    function addStore (string memory _name, string memory _description)\r\n    public\r\n    isOwner\r\n    {\r\n        Store memory tempStore;\r\n\r\n        tempStore.name = _name;\r\n        tempStore.description = _description;\r\n\r\n        ownersToStores[msg.sender].push(tempStore);\r\n\r\n        emit storeCreated(msg.sender, _name, _description);\r\n    }\r\n\r\n    function removeStore (uint removeStoreIndex)\r\n    public\r\n    isOwner\r\n    {\r\n\r\n        if ((removeStoreIndex == 0) && (ownersToStores[msg.sender].length == 1))\r\n        {\r\n            delete ownersToStores[msg.sender][removeStoreIndex];\r\n            ownersToStores[msg.sender].pop();\r\n        }\r\n        else\r\n        {\r\n            ownersToStores[msg.sender][removeStoreIndex] = ownersToStores[msg.sender][ownersToStores[msg.sender].length-1];\r\n            delete ownersToStores[msg.sender][ownersToStores[msg.sender].length-1];\r\n            ownersToStores[msg.sender].pop();\r\n        }\r\n    }\r\n\r\n    function getStoreArrayLength()\r\n    public\r\n    view\r\n    isAdmin\r\n    returns (uint)\r\n    {\r\n        return ownersToStores[msg.sender].length;\r\n    }\r\n\r\n    function addProduct (uint _storeIndex, uint _sku, string memory _description, uint _price,uint _qty)\r\n    public\r\n    isOwner\r\n    {\r\n        //ownersToStores[msg.sender] is equal to array of Storefronts\r\n        // user provides _storeIndex to determine which store to add product\r\n        // user provides _sku for key value of mapping and Product struct is the value\r\n\r\n        ownersToStores[msg.sender][_storeIndex].skuToProducts[_sku].description = _description;\r\n        ownersToStores[msg.sender][_storeIndex].skuToProducts[_sku].price = _price;\r\n        ownersToStores[msg.sender][_storeIndex].skuToProducts[_sku].qty = _qty;\r\n    }\r\n\r\n    function viewProduct (uint _storeIndex, uint _sku)\r\n    public\r\n    view\r\n    isOwner\r\n    returns (string memory, uint, uint)\r\n    {\r\n        //ownersToStores[msg.sender] is equal to array of Storefronts\r\n        // user provides _storeIndex to determine which store to add product\r\n        // user provides _sku for key value of mapping and Product struct is the value\r\n\r\n        string memory tempDescription = ownersToStores[msg.sender][_storeIndex].skuToProducts[_sku].description;\r\n        uint tempPrice = ownersToStores[msg.sender][_storeIndex].skuToProducts[_sku].price;\r\n        uint tempQty = ownersToStores[msg.sender][_storeIndex].skuToProducts[_sku].qty;\r\n\r\n        return (tempDescription, tempPrice, tempQty);\r\n    }\r\n\r\n    function removeProduct (uint _storeIndex, uint _sku)\r\n    public\r\n    isOwner\r\n    {\r\n        //ownersToStores[msg.sender] is equal to array of Storefronts\r\n        // user provides _storeIndex to determine which store to add product\r\n        // user provides _sku for key value of mapping and Product struct is the value\r\n\r\n        ownersToStores[msg.sender][_storeIndex].skuToProducts[_sku].description = '';\r\n        ownersToStores[msg.sender][_storeIndex].skuToProducts[_sku].price = 0;\r\n        ownersToStores[msg.sender][_storeIndex].skuToProducts[_sku].qty = 0;\r\n    }\r\n\r\n    function changeProductPrice (uint _storeIndex, uint _sku, uint _newPrice)\r\n    public\r\n    isOwner\r\n    {\r\n        //ownersToStores[msg.sender] is equal to array of Storefronts\r\n        // user provides _storeIndex to determine which store to add product\r\n        // user provides _sku for key value of mapping and Product struct is the value\r\n\r\n        ownersToStores[msg.sender][_storeIndex].skuToProducts[_sku].price = _newPrice;\r\n    }\r\n\r\n    function buyProduct (address payable _storeOwner, uint _storeIndex, uint _sku, uint _qty)\r\n    public\r\n    payable\r\n    {\r\n        //ownersToStores[msg.sender] is equal to array of Storefronts\r\n        // user provides _storeIndex to determine which store to add product\r\n        // user provides _sku for key value of mapping and Product struct is the value\r\n\r\n        //require (msg.value >= ownersToStores[_storeOwner][_storeIndex].skuToProducts[_sku].price, 'not enough ether');\r\n\r\n        ownersToStores[_storeOwner][_storeIndex].skuToProducts[_sku].qty -= _qty;\r\n        ownerMapping[_storeOwner].balance += msg.value;\r\n\r\n        emit productBought (_storeOwner, _storeIndex, _sku, _qty);\r\n    }\r\n\r\n    function viewOwnerContractBalance()\r\n    public\r\n    view\r\n    isOwner\r\n        returns (uint)\r\n    {\r\n        //ownersToStores[msg.sender] is equal to array of Storefronts\r\n        // user provides _storeIndex to determine which store to add product\r\n        // user provides _sku for key value of mapping and Product struct is the value\r\n\r\n        uint tempBalance = ownerMapping[msg.sender].balance;\r\n\r\n        return tempBalance;\r\n    }\r\n\r\n    function withdrawContractBalance()\r\n    public\r\n    payable\r\n    isOwner\r\n    {\r\n        //ownersToStores[msg.sender] is equal to array of Storefronts\r\n        // user provides _storeIndex to determine which store to add product\r\n        // user provides _sku for key value of mapping and Product struct is the value\r\n        uint tempBalance = ownerMapping[msg.sender].balance;\r\n        ownerMapping[msg.sender].balance = 0;\r\n\r\n        // shouldn't rely on gas cost of .transfer\r\n        msg.sender.transfer(tempBalance);\r\n    }\r\n\r\n}",
  "sourcePath": "C:/Users/cjd9s/OneDrive/Documents/Ethereum/FinalProject/contracts/Marketplace.sol",
  "compiler": {
    "name": "solc",
    "version": "0.5.12+commit.7709ece9.Emscripten.clang"
  },
  "schemaVersion": "3.0.20",
  "updatedAt": "2020-01-29T16:06:36.384Z",
  "networkType": "ethereum",
  "devdoc": {
    "methods": {}
  },
  "userdoc": {
    "methods": {}
  }
}