{
  "contractName": "Marketplace",
  "abi": [
    {
      "inputs": [],
      "payable": false,
      "stateMutability": "nonpayable",
      "type": "constructor"
    },
    {
      "anonymous": false,
      "inputs": [
        {
          "indexed": false,
          "internalType": "address",
          "name": "newAdmin",
          "type": "address"
        }
      ],
      "name": "adminAdded",
      "type": "event"
    },
    {
      "anonymous": false,
      "inputs": [
        {
          "indexed": false,
          "internalType": "address",
          "name": "storeOwner",
          "type": "address"
        },
        {
          "indexed": false,
          "internalType": "uint256",
          "name": "store",
          "type": "uint256"
        },
        {
          "indexed": false,
          "internalType": "uint256",
          "name": "sku",
          "type": "uint256"
        },
        {
          "indexed": false,
          "internalType": "uint256",
          "name": "qty",
          "type": "uint256"
        }
      ],
      "name": "productBought",
      "type": "event"
    },
    {
      "anonymous": false,
      "inputs": [
        {
          "indexed": false,
          "internalType": "address",
          "name": "owner",
          "type": "address"
        },
        {
          "indexed": false,
          "internalType": "string",
          "name": "name",
          "type": "string"
        },
        {
          "indexed": false,
          "internalType": "string",
          "name": "description",
          "type": "string"
        }
      ],
      "name": "storeCreated",
      "type": "event"
    },
    {
      "constant": true,
      "inputs": [
        {
          "internalType": "address",
          "name": "",
          "type": "address"
        }
      ],
      "name": "adminMapping",
      "outputs": [
        {
          "internalType": "bool",
          "name": "adminOrNot",
          "type": "bool"
        },
        {
          "internalType": "uint256",
          "name": "arrayIndex",
          "type": "uint256"
        }
      ],
      "payable": false,
      "stateMutability": "view",
      "type": "function"
    },
    {
      "constant": true,
      "inputs": [
        {
          "internalType": "address",
          "name": "",
          "type": "address"
        }
      ],
      "name": "ownerMapping",
      "outputs": [
        {
          "internalType": "bool",
          "name": "ownerOrNot",
          "type": "bool"
        },
        {
          "internalType": "uint256",
          "name": "arrayIndex",
          "type": "uint256"
        },
        {
          "internalType": "uint256",
          "name": "balance",
          "type": "uint256"
        }
      ],
      "payable": false,
      "stateMutability": "view",
      "type": "function"
    },
    {
      "constant": false,
      "inputs": [],
      "name": "toggleContractActive",
      "outputs": [],
      "payable": false,
      "stateMutability": "nonpayable",
      "type": "function"
    },
    {
      "constant": true,
      "inputs": [
        {
          "internalType": "uint256",
          "name": "_num1",
          "type": "uint256"
        },
        {
          "internalType": "uint256",
          "name": "_num2",
          "type": "uint256"
        }
      ],
      "name": "getSum",
      "outputs": [
        {
          "internalType": "uint256",
          "name": "",
          "type": "uint256"
        }
      ],
      "payable": false,
      "stateMutability": "pure",
      "type": "function"
    },
    {
      "constant": true,
      "inputs": [
        {
          "internalType": "address",
          "name": "_ownerAddress",
          "type": "address"
        }
      ],
      "name": "getOwnerArrayMapping",
      "outputs": [
        {
          "internalType": "bool",
          "name": "ownerOrNot",
          "type": "bool"
        },
        {
          "internalType": "uint256",
          "name": "arrayIndex",
          "type": "uint256"
        }
      ],
      "payable": false,
      "stateMutability": "view",
      "type": "function"
    },
    {
      "constant": true,
      "inputs": [],
      "name": "getOwnerArray",
      "outputs": [
        {
          "internalType": "address[]",
          "name": "",
          "type": "address[]"
        }
      ],
      "payable": false,
      "stateMutability": "view",
      "type": "function"
    },
    {
      "constant": true,
      "inputs": [
        {
          "internalType": "address",
          "name": "_adminAddress",
          "type": "address"
        }
      ],
      "name": "getAdminArrayMapping",
      "outputs": [
        {
          "internalType": "bool",
          "name": "adminOrNot",
          "type": "bool"
        },
        {
          "internalType": "uint256",
          "name": "arrayIndex",
          "type": "uint256"
        }
      ],
      "payable": false,
      "stateMutability": "view",
      "type": "function"
    },
    {
      "constant": true,
      "inputs": [],
      "name": "getAdminArray",
      "outputs": [
        {
          "internalType": "address[]",
          "name": "",
          "type": "address[]"
        }
      ],
      "payable": false,
      "stateMutability": "view",
      "type": "function"
    },
    {
      "constant": false,
      "inputs": [
        {
          "internalType": "address",
          "name": "_newOwnerAddress",
          "type": "address"
        }
      ],
      "name": "addOwner",
      "outputs": [],
      "payable": false,
      "stateMutability": "nonpayable",
      "type": "function"
    },
    {
      "constant": false,
      "inputs": [
        {
          "internalType": "address",
          "name": "_currentOwnerAddress",
          "type": "address"
        }
      ],
      "name": "removeOwner",
      "outputs": [],
      "payable": false,
      "stateMutability": "nonpayable",
      "type": "function"
    },
    {
      "constant": false,
      "inputs": [
        {
          "internalType": "address",
          "name": "_newAdminAddress",
          "type": "address"
        }
      ],
      "name": "addAdmin",
      "outputs": [],
      "payable": false,
      "stateMutability": "nonpayable",
      "type": "function"
    },
    {
      "constant": false,
      "inputs": [
        {
          "internalType": "address",
          "name": "_currentAdminAddress",
          "type": "address"
        }
      ],
      "name": "removeAdmin",
      "outputs": [],
      "payable": false,
      "stateMutability": "nonpayable",
      "type": "function"
    },
    {
      "constant": false,
      "inputs": [
        {
          "internalType": "string",
          "name": "_name",
          "type": "string"
        },
        {
          "internalType": "string",
          "name": "_description",
          "type": "string"
        }
      ],
      "name": "addStore",
      "outputs": [],
      "payable": false,
      "stateMutability": "nonpayable",
      "type": "function"
    },
    {
      "constant": false,
      "inputs": [
        {
          "internalType": "uint256",
          "name": "_removeStoreIndex",
          "type": "uint256"
        }
      ],
      "name": "removeStore",
      "outputs": [],
      "payable": false,
      "stateMutability": "nonpayable",
      "type": "function"
    },
    {
      "constant": true,
      "inputs": [],
      "name": "getStoreArrayLength",
      "outputs": [
        {
          "internalType": "uint256",
          "name": "",
          "type": "uint256"
        }
      ],
      "payable": false,
      "stateMutability": "view",
      "type": "function"
    },
    {
      "constant": false,
      "inputs": [
        {
          "internalType": "uint256",
          "name": "_storeIndex",
          "type": "uint256"
        },
        {
          "internalType": "uint256",
          "name": "_sku",
          "type": "uint256"
        },
        {
          "internalType": "string",
          "name": "_description",
          "type": "string"
        },
        {
          "internalType": "uint256",
          "name": "_price",
          "type": "uint256"
        },
        {
          "internalType": "uint256",
          "name": "_qty",
          "type": "uint256"
        }
      ],
      "name": "addProduct",
      "outputs": [],
      "payable": false,
      "stateMutability": "nonpayable",
      "type": "function"
    },
    {
      "constant": true,
      "inputs": [
        {
          "internalType": "uint256",
          "name": "_storeIndex",
          "type": "uint256"
        },
        {
          "internalType": "uint256",
          "name": "_sku",
          "type": "uint256"
        }
      ],
      "name": "viewProduct",
      "outputs": [
        {
          "internalType": "string",
          "name": "",
          "type": "string"
        },
        {
          "internalType": "uint256",
          "name": "",
          "type": "uint256"
        },
        {
          "internalType": "uint256",
          "name": "",
          "type": "uint256"
        }
      ],
      "payable": false,
      "stateMutability": "view",
      "type": "function"
    },
    {
      "constant": false,
      "inputs": [
        {
          "internalType": "uint256",
          "name": "_storeIndex",
          "type": "uint256"
        },
        {
          "internalType": "uint256",
          "name": "_sku",
          "type": "uint256"
        }
      ],
      "name": "removeProduct",
      "outputs": [],
      "payable": false,
      "stateMutability": "nonpayable",
      "type": "function"
    },
    {
      "constant": false,
      "inputs": [
        {
          "internalType": "uint256",
          "name": "_storeIndex",
          "type": "uint256"
        },
        {
          "internalType": "uint256",
          "name": "_sku",
          "type": "uint256"
        },
        {
          "internalType": "uint256",
          "name": "_newPrice",
          "type": "uint256"
        }
      ],
      "name": "changeProductPrice",
      "outputs": [],
      "payable": false,
      "stateMutability": "nonpayable",
      "type": "function"
    },
    {
      "constant": false,
      "inputs": [
        {
          "internalType": "address payable",
          "name": "_storeOwner",
          "type": "address"
        },
        {
          "internalType": "uint256",
          "name": "_storeIndex",
          "type": "uint256"
        },
        {
          "internalType": "uint256",
          "name": "_sku",
          "type": "uint256"
        },
        {
          "internalType": "uint256",
          "name": "_qty",
          "type": "uint256"
        }
      ],
      "name": "buyProduct",
      "outputs": [],
      "payable": true,
      "stateMutability": "payable",
      "type": "function"
    },
    {
      "constant": true,
      "inputs": [],
      "name": "viewOwnerContractBalance",
      "outputs": [
        {
          "internalType": "uint256",
          "name": "",
          "type": "uint256"
        }
      ],
      "payable": false,
      "stateMutability": "view",
      "type": "function"
    },
    {
      "constant": false,
      "inputs": [],
      "name": "withdrawContractBalance",
      "outputs": [],
      "payable": true,
      "stateMutability": "payable",
      "type": "function"
    }
  ],
  "bytecode": "0x608060405260008060146101000a81548160ff02191690831515021790555034801561002a57600080fd5b50336000806101000a81548173ffffffffffffffffffffffffffffffffffffffff021916908373ffffffffffffffffffffffffffffffffffffffff1602179055506132308061007a6000396000f3fe6080604052600436106101355760003560e01c806380dcbff1116100ab578063bfab3db91161006f578063bfab3db91461072a578063ced71d8314610734578063cf1be85f146107a4578063e205205d146107f3578063ed2b77e61461086a578063ed48719c146108da57610135565b806380dcbff11461059d5780638e86b125146106095780639bc0432c14610662578063aafba9ce1461069d578063b74e0b0d146106ff57610135565b80635287d535116100fd5780635287d5351461035357806366b430cd146103985780636ec88ace14610464578063704802751461048f5780637065cb48146104e05780637a55207b1461053157610135565b80631312f1c41461013a5780631385d24c146101aa578063173825d9146101c15780631785f53c14610212578063295a543414610263575b600080fd5b34801561014657600080fd5b506101896004803603602081101561015d57600080fd5b81019080803573ffffffffffffffffffffffffffffffffffffffff169060200190929190505050610a39565b60405180831515151581526020018281526020019250505060405180910390f35b3480156101b657600080fd5b506101bf610ba7565b005b3480156101cd57600080fd5b50610210600480360360208110156101e457600080fd5b81019080803573ffffffffffffffffffffffffffffffffffffffff169060200190929190505050610c95565b005b34801561021e57600080fd5b506102616004803603602081101561023557600080fd5b81019080803573ffffffffffffffffffffffffffffffffffffffff169060200190929190505050610f15565b005b34801561026f57600080fd5b50610351600480360360a081101561028657600080fd5b810190808035906020019092919080359060200190929190803590602001906401000000008111156102b757600080fd5b8201836020820111156102c957600080fd5b803590602001918460018302840111640100000000831117156102eb57600080fd5b91908080601f016020809104026020016040519081016040528093929190818152602001838380828437600081840152601f19601f820116905080830192505050505050509192919290803590602001909291908035906020019092919050505061118a565b005b34801561035f57600080fd5b506103966004803603604081101561037657600080fd5b8101908080359060200190929190803590602001909291905050506113c6565b005b3480156103a457600080fd5b506103db600480360360408110156103bb57600080fd5b810190808035906020019092919080359060200190929190505050611610565b6040518080602001848152602001838152602001828103825285818151815260200191508051906020019080838360005b8381101561042757808201518184015260208101905061040c565b50505050905090810190601f1680156104545780820380516001836020036101000a031916815260200191505b5094505050505060405180910390f35b34801561047057600080fd5b506104796118e5565b6040518082815260200191505060405180910390f35b34801561049b57600080fd5b506104de600480360360208110156104b257600080fd5b81019080803573ffffffffffffffffffffffffffffffffffffffff1690602001909291905050506119fe565b005b3480156104ec57600080fd5b5061052f6004803603602081101561050357600080fd5b81019080803573ffffffffffffffffffffffffffffffffffffffff169060200190929190505050611c33565b005b34801561053d57600080fd5b50610546611e0c565b6040518080602001828103825283818151815260200191508051906020019060200280838360005b8381101561058957808201518184015260208101905061056e565b505050509050019250505060405180910390f35b3480156105a957600080fd5b506105b2611f63565b6040518080602001828103825283818151815260200191508051906020019060200280838360005b838110156105f55780820151818401526020810190506105da565b505050509050019250505060405180910390f35b34801561061557600080fd5b5061064c6004803603604081101561062c57600080fd5b8101908080359060200190929190803590602001909291905050506120b3565b6040518082815260200191505060405180910390f35b34801561066e57600080fd5b5061069b6004803603602081101561068557600080fd5b810190808035906020019092919050505061214f565b005b6106fd600480360360808110156106b357600080fd5b81019080803573ffffffffffffffffffffffffffffffffffffffff1690602001909291908035906020019092919080359060200190929190803590602001909291905050506125fd565b005b34801561070b57600080fd5b5061071461274b565b6040518082815260200191505060405180910390f35b61073261285e565b005b34801561074057600080fd5b506107836004803603602081101561075757600080fd5b81019080803573ffffffffffffffffffffffffffffffffffffffff169060200190929190505050612a15565b60405180831515151581526020018281526020019250505060405180910390f35b3480156107b057600080fd5b506107f1600480360360608110156107c757600080fd5b81019080803590602001909291908035906020019092919080359060200190929190505050612b76565b005b3480156107ff57600080fd5b506108426004803603602081101561081657600080fd5b81019080803573ffffffffffffffffffffffffffffffffffffffff169060200190929190505050612cb8565b6040518084151515158152602001838152602001828152602001935050505060405180910390f35b34801561087657600080fd5b506108b96004803603602081101561088d57600080fd5b81019080803573ffffffffffffffffffffffffffffffffffffffff169060200190929190505050612cef565b60405180831515151581526020018281526020019250505060405180910390f35b3480156108e657600080fd5b50610a37600480360360408110156108fd57600080fd5b810190808035906020019064010000000081111561091a57600080fd5b82018360208201111561092c57600080fd5b8035906020019184600183028401116401000000008311171561094e57600080fd5b91908080601f016020809104026020016040519081016040528093929190818152602001838380828437600081840152601f19601f820116905080830192505050505050509192919290803590602001906401000000008111156109b157600080fd5b8201836020820111156109c357600080fd5b803590602001918460018302840111640100000000831117156109e557600080fd5b91908080601f016020809104026020016040519081016040528093929190818152602001838380828437600081840152601f19601f820116905080830192505050505050509192919290505050612d20565b005b60008060011515600460003373ffffffffffffffffffffffffffffffffffffffff1673ffffffffffffffffffffffffffffffffffffffff16815260200190815260200160002060000160009054906101000a900460ff16151514610b05576040517f08c379a000000000000000000000000000000000000000000000000000000000815260040180806020018281038252600c8152602001807f4e6f7420616e2061646d696e000000000000000000000000000000000000000081525060200191505060405180910390fd5b600360008473ffffffffffffffffffffffffffffffffffffffff1673ffffffffffffffffffffffffffffffffffffffff16815260200190815260200160002060000160009054906101000a900460ff169150600360008473ffffffffffffffffffffffffffffffffffffffff1673ffffffffffffffffffffffffffffffffffffffff168152602001908152602001600020600101549050818191509150915091565b3373ffffffffffffffffffffffffffffffffffffffff166000809054906101000a900473ffffffffffffffffffffffffffffffffffffffff1673ffffffffffffffffffffffffffffffffffffffff1614610c69576040517f08c379a00000000000000000000000000000000000000000000000000000000081526004018080602001828103825260128152602001807f4e6f7420746865206f726967696e61746f72000000000000000000000000000081525060200191505060405180910390fd5b600060149054906101000a900460ff1615600060146101000a81548160ff021916908315150217905550565b60011515600460003373ffffffffffffffffffffffffffffffffffffffff1673ffffffffffffffffffffffffffffffffffffffff16815260200190815260200160002060000160009054906101000a900460ff16151514610d5e576040517f08c379a000000000000000000000000000000000000000000000000000000000815260040180806020018281038252600c8152602001807f4e6f7420616e2061646d696e000000000000000000000000000000000000000081525060200191505060405180910390fd5b6000600360008373ffffffffffffffffffffffffffffffffffffffff1673ffffffffffffffffffffffffffffffffffffffff16815260200190815260200160002060000160006101000a81548160ff021916908315150217905550600260016002805490500381548110610dce57fe5b9060005260206000200160009054906101000a900473ffffffffffffffffffffffffffffffffffffffff166002600360008473ffffffffffffffffffffffffffffffffffffffff1673ffffffffffffffffffffffffffffffffffffffff1681526020019081526020016000206001015481548110610e4857fe5b9060005260206000200160006101000a81548173ffffffffffffffffffffffffffffffffffffffff021916908373ffffffffffffffffffffffffffffffffffffffff160217905550600260016002805490500381548110610ea557fe5b9060005260206000200160006101000a81549073ffffffffffffffffffffffffffffffffffffffff02191690556002805480610edd57fe5b6001900381819060005260206000200160006101000a81549073ffffffffffffffffffffffffffffffffffffffff0219169055905550565b3373ffffffffffffffffffffffffffffffffffffffff166000809054906101000a900473ffffffffffffffffffffffffffffffffffffffff1673ffffffffffffffffffffffffffffffffffffffff1614610fd7576040517f08c379a00000000000000000000000000000000000000000000000000000000081526004018080602001828103825260128152602001807f4e6f7420746865206f726967696e61746f72000000000000000000000000000081525060200191505060405180910390fd5b6000600460008373ffffffffffffffffffffffffffffffffffffffff1673ffffffffffffffffffffffffffffffffffffffff16815260200190815260200160002060000160006101000a81548160ff0219169083151502179055506001808080549050038154811061104557fe5b9060005260206000200160009054906101000a900473ffffffffffffffffffffffffffffffffffffffff166001600460008473ffffffffffffffffffffffffffffffffffffffff1673ffffffffffffffffffffffffffffffffffffffff16815260200190815260200160002060010154815481106110bf57fe5b9060005260206000200160006101000a81548173ffffffffffffffffffffffffffffffffffffffff021916908373ffffffffffffffffffffffffffffffffffffffff1602179055506001808080549050038154811061111a57fe5b9060005260206000200160006101000a81549073ffffffffffffffffffffffffffffffffffffffff0219169055600180548061115257fe5b6001900381819060005260206000200160006101000a81549073ffffffffffffffffffffffffffffffffffffffff0219169055905550565b60011515600360003373ffffffffffffffffffffffffffffffffffffffff1673ffffffffffffffffffffffffffffffffffffffff16815260200190815260200160002060000160009054906101000a900460ff16151514611253576040517f08c379a000000000000000000000000000000000000000000000000000000000815260040180806020018281038252600c8152602001807f4e6f7420616e206f776e6572000000000000000000000000000000000000000081525060200191505060405180910390fd5b82600560003373ffffffffffffffffffffffffffffffffffffffff1673ffffffffffffffffffffffffffffffffffffffff168152602001908152602001600020868154811061129e57fe5b9060005260206000209060030201600201600086815260200190815260200160002060010190805190602001906112d6929190612fed565b5081600560003373ffffffffffffffffffffffffffffffffffffffff1673ffffffffffffffffffffffffffffffffffffffff168152602001908152602001600020868154811061132257fe5b906000526020600020906003020160020160008681526020019081526020016000206000018190555080600560003373ffffffffffffffffffffffffffffffffffffffff1673ffffffffffffffffffffffffffffffffffffffff168152602001908152602001600020868154811061139657fe5b90600052602060002090600302016002016000868152602001908152602001600020600201819055505050505050565b60011515600360003373ffffffffffffffffffffffffffffffffffffffff1673ffffffffffffffffffffffffffffffffffffffff16815260200190815260200160002060000160009054906101000a900460ff1615151461148f576040517f08c379a000000000000000000000000000000000000000000000000000000000815260040180806020018281038252600c8152602001807f4e6f7420616e206f776e6572000000000000000000000000000000000000000081525060200191505060405180910390fd5b60405180602001604052806000815250600560003373ffffffffffffffffffffffffffffffffffffffff1673ffffffffffffffffffffffffffffffffffffffff16815260200190815260200160002083815481106114e957fe5b906000526020600020906003020160020160008381526020019081526020016000206001019080519060200190611521929190612fed565b506000600560003373ffffffffffffffffffffffffffffffffffffffff1673ffffffffffffffffffffffffffffffffffffffff168152602001908152602001600020838154811061156e57fe5b90600052602060002090600302016002016000838152602001908152602001600020600001819055506000600560003373ffffffffffffffffffffffffffffffffffffffff1673ffffffffffffffffffffffffffffffffffffffff16815260200190815260200160002083815481106115e357fe5b90600052602060002090600302016002016000838152602001908152602001600020600201819055505050565b606060008060011515600360003373ffffffffffffffffffffffffffffffffffffffff1673ffffffffffffffffffffffffffffffffffffffff16815260200190815260200160002060000160009054906101000a900460ff161515146116de576040517f08c379a000000000000000000000000000000000000000000000000000000000815260040180806020018281038252600c8152602001807f4e6f7420616e206f776e6572000000000000000000000000000000000000000081525060200191505060405180910390fd5b6060600560003373ffffffffffffffffffffffffffffffffffffffff1673ffffffffffffffffffffffffffffffffffffffff168152602001908152602001600020868154811061172a57fe5b906000526020600020906003020160020160008681526020019081526020016000206001018054600181600116156101000203166002900480601f0160208091040260200160405190810160405280929190818152602001828054600181600116156101000203166002900480156117e35780601f106117b8576101008083540402835291602001916117e3565b820191906000526020600020905b8154815290600101906020018083116117c657829003601f168201915b505050505090506000600560003373ffffffffffffffffffffffffffffffffffffffff1673ffffffffffffffffffffffffffffffffffffffff168152602001908152602001600020878154811061183657fe5b906000526020600020906003020160020160008781526020019081526020016000206000015490506000600560003373ffffffffffffffffffffffffffffffffffffffff1673ffffffffffffffffffffffffffffffffffffffff16815260200190815260200160002088815481106118aa57fe5b906000526020600020906003020160020160008881526020019081526020016000206002015490508282829550955095505050509250925092565b600060011515600360003373ffffffffffffffffffffffffffffffffffffffff1673ffffffffffffffffffffffffffffffffffffffff16815260200190815260200160002060000160009054906101000a900460ff161515146119b0576040517f08c379a000000000000000000000000000000000000000000000000000000000815260040180806020018281038252600c8152602001807f4e6f7420616e206f776e6572000000000000000000000000000000000000000081525060200191505060405180910390fd5b6000600360003373ffffffffffffffffffffffffffffffffffffffff1673ffffffffffffffffffffffffffffffffffffffff1681526020019081526020016000206002015490508091505090565b3373ffffffffffffffffffffffffffffffffffffffff166000809054906101000a900473ffffffffffffffffffffffffffffffffffffffff1673ffffffffffffffffffffffffffffffffffffffff1614611ac0576040517f08c379a00000000000000000000000000000000000000000000000000000000081526004018080602001828103825260128152602001807f4e6f7420746865206f726967696e61746f72000000000000000000000000000081525060200191505060405180910390fd5b600180549050600460008373ffffffffffffffffffffffffffffffffffffffff1673ffffffffffffffffffffffffffffffffffffffff168152602001908152602001600020600101819055506001600460008373ffffffffffffffffffffffffffffffffffffffff1673ffffffffffffffffffffffffffffffffffffffff16815260200190815260200160002060000160006101000a81548160ff02191690831515021790555060018190806001815401808255809150509060018203906000526020600020016000909192909190916101000a81548173ffffffffffffffffffffffffffffffffffffffff021916908373ffffffffffffffffffffffffffffffffffffffff160217905550507fefcbb6030dbeda3448a657cc462d3fde6f3b78e2710bd7b2d9e2ab358a12e17081604051808273ffffffffffffffffffffffffffffffffffffffff1673ffffffffffffffffffffffffffffffffffffffff16815260200191505060405180910390a150565b60011515600460003373ffffffffffffffffffffffffffffffffffffffff1673ffffffffffffffffffffffffffffffffffffffff16815260200190815260200160002060000160009054906101000a900460ff16151514611cfc576040517f08c379a000000000000000000000000000000000000000000000000000000000815260040180806020018281038252600c8152602001807f4e6f7420616e2061646d696e000000000000000000000000000000000000000081525060200191505060405180910390fd5b600280549050600360008373ffffffffffffffffffffffffffffffffffffffff1673ffffffffffffffffffffffffffffffffffffffff168152602001908152602001600020600101819055506001600360008373ffffffffffffffffffffffffffffffffffffffff1673ffffffffffffffffffffffffffffffffffffffff16815260200190815260200160002060000160006101000a81548160ff02191690831515021790555060028190806001815401808255809150509060018203906000526020600020016000909192909190916101000a81548173ffffffffffffffffffffffffffffffffffffffff021916908373ffffffffffffffffffffffffffffffffffffffff1602179055505050565b606060011515600460003373ffffffffffffffffffffffffffffffffffffffff1673ffffffffffffffffffffffffffffffffffffffff16815260200190815260200160002060000160009054906101000a900460ff16151514611ed7576040517f08c379a000000000000000000000000000000000000000000000000000000000815260040180806020018281038252600c8152602001807f4e6f7420616e2061646d696e000000000000000000000000000000000000000081525060200191505060405180910390fd5b6002805480602002602001604051908101604052809291908181526020018280548015611f5957602002820191906000526020600020905b8160009054906101000a900473ffffffffffffffffffffffffffffffffffffffff1673ffffffffffffffffffffffffffffffffffffffff1681526020019060010190808311611f0f575b5050505050905090565b60603373ffffffffffffffffffffffffffffffffffffffff166000809054906101000a900473ffffffffffffffffffffffffffffffffffffffff1673ffffffffffffffffffffffffffffffffffffffff1614612027576040517f08c379a00000000000000000000000000000000000000000000000000000000081526004018080602001828103825260128152602001807f4e6f7420746865206f726967696e61746f72000000000000000000000000000081525060200191505060405180910390fd5b60018054806020026020016040519081016040528092919081815260200182805480156120a957602002820191906000526020600020905b8160009054906101000a900473ffffffffffffffffffffffffffffffffffffffff1673ffffffffffffffffffffffffffffffffffffffff168152602001906001019080831161205f575b5050505050905090565b600073__LibraryDemo___________________________63e2276f1c84846040518363ffffffff1660e01b8152600401808381526020018281526020019250505060206040518083038186803b15801561210c57600080fd5b505af4158015612120573d6000803e3d6000fd5b505050506040513d602081101561213657600080fd5b8101908080519060200190929190505050905092915050565b60011515600360003373ffffffffffffffffffffffffffffffffffffffff1673ffffffffffffffffffffffffffffffffffffffff16815260200190815260200160002060000160009054906101000a900460ff16151514612218576040517f08c379a000000000000000000000000000000000000000000000000000000000815260040180806020018281038252600c8152602001807f4e6f7420616e206f776e6572000000000000000000000000000000000000000081525060200191505060405180910390fd5b60008114801561226a57506001600560003373ffffffffffffffffffffffffffffffffffffffff1673ffffffffffffffffffffffffffffffffffffffff16815260200190815260200160002080549050145b1561237057600560003373ffffffffffffffffffffffffffffffffffffffff1673ffffffffffffffffffffffffffffffffffffffff16815260200190815260200160002081815481106122b957fe5b9060005260206000209060030201600080820160006122d8919061306d565b6001820160006122e8919061306d565b5050600560003373ffffffffffffffffffffffffffffffffffffffff1673ffffffffffffffffffffffffffffffffffffffff16815260200190815260200160002080548061233257fe5b600190038181906000526020600020906003020160008082016000612357919061306d565b600182016000612367919061306d565b505090556125fa565b600560003373ffffffffffffffffffffffffffffffffffffffff1673ffffffffffffffffffffffffffffffffffffffff1681526020019081526020016000206001600560003373ffffffffffffffffffffffffffffffffffffffff1673ffffffffffffffffffffffffffffffffffffffff1681526020019081526020016000208054905003815481106123ff57fe5b9060005260206000209060030201600560003373ffffffffffffffffffffffffffffffffffffffff1673ffffffffffffffffffffffffffffffffffffffff168152602001908152602001600020828154811061245757fe5b90600052602060002090600302016000820181600001908054600181600116156101000203166002900461248c9291906130b5565b50600182018160010190805460018160011615610100020316600290046124b49291906130b5565b50905050600560003373ffffffffffffffffffffffffffffffffffffffff1673ffffffffffffffffffffffffffffffffffffffff1681526020019081526020016000206001600560003373ffffffffffffffffffffffffffffffffffffffff1673ffffffffffffffffffffffffffffffffffffffff16815260200190815260200160002080549050038154811061254757fe5b906000526020600020906003020160008082016000612566919061306d565b600182016000612576919061306d565b5050600560003373ffffffffffffffffffffffffffffffffffffffff1673ffffffffffffffffffffffffffffffffffffffff1681526020019081526020016000208054806125c057fe5b6001900381819060005260206000209060030201600080820160006125e5919061306d565b6001820160006125f5919061306d565b505090555b50565b80600560008673ffffffffffffffffffffffffffffffffffffffff1673ffffffffffffffffffffffffffffffffffffffff168152602001908152602001600020848154811061264857fe5b906000526020600020906003020160020160008481526020019081526020016000206002016000828254039250508190555034600360008673ffffffffffffffffffffffffffffffffffffffff1673ffffffffffffffffffffffffffffffffffffffff168152602001908152602001600020600201600082825401925050819055507fed1575163391e8e4c8b8873e0a67abd7805ee39f964e751caf32c3008593412e84848484604051808573ffffffffffffffffffffffffffffffffffffffff1673ffffffffffffffffffffffffffffffffffffffff16815260200184815260200183815260200182815260200194505050505060405180910390a150505050565b600060011515600460003373ffffffffffffffffffffffffffffffffffffffff1673ffffffffffffffffffffffffffffffffffffffff16815260200190815260200160002060000160009054906101000a900460ff16151514612816576040517f08c379a000000000000000000000000000000000000000000000000000000000815260040180806020018281038252600c8152602001807f4e6f7420616e2061646d696e000000000000000000000000000000000000000081525060200191505060405180910390fd5b600560003373ffffffffffffffffffffffffffffffffffffffff1673ffffffffffffffffffffffffffffffffffffffff16815260200190815260200160002080549050905090565b60011515600360003373ffffffffffffffffffffffffffffffffffffffff1673ffffffffffffffffffffffffffffffffffffffff16815260200190815260200160002060000160009054906101000a900460ff16151514612927576040517f08c379a000000000000000000000000000000000000000000000000000000000815260040180806020018281038252600c8152602001807f4e6f7420616e206f776e6572000000000000000000000000000000000000000081525060200191505060405180910390fd5b600060149054906101000a900460ff16612a13576000600360003373ffffffffffffffffffffffffffffffffffffffff1673ffffffffffffffffffffffffffffffffffffffff1681526020019081526020016000206002015490506000600360003373ffffffffffffffffffffffffffffffffffffffff1673ffffffffffffffffffffffffffffffffffffffff168152602001908152602001600020600201819055503373ffffffffffffffffffffffffffffffffffffffff166108fc829081150290604051600060405180830381858888f19350505050158015612a10573d6000803e3d6000fd5b50505b565b6000803373ffffffffffffffffffffffffffffffffffffffff166000809054906101000a900473ffffffffffffffffffffffffffffffffffffffff1673ffffffffffffffffffffffffffffffffffffffff1614612ada576040517f08c379a00000000000000000000000000000000000000000000000000000000081526004018080602001828103825260128152602001807f4e6f7420746865206f726967696e61746f72000000000000000000000000000081525060200191505060405180910390fd5b600460008473ffffffffffffffffffffffffffffffffffffffff1673ffffffffffffffffffffffffffffffffffffffff16815260200190815260200160002060000160009054906101000a900460ff169150600460008473ffffffffffffffffffffffffffffffffffffffff1673ffffffffffffffffffffffffffffffffffffffff168152602001908152602001600020600101549050915091565b60011515600360003373ffffffffffffffffffffffffffffffffffffffff1673ffffffffffffffffffffffffffffffffffffffff16815260200190815260200160002060000160009054906101000a900460ff16151514612c3f576040517f08c379a000000000000000000000000000000000000000000000000000000000815260040180806020018281038252600c8152602001807f4e6f7420616e206f776e6572000000000000000000000000000000000000000081525060200191505060405180910390fd5b80600560003373ffffffffffffffffffffffffffffffffffffffff1673ffffffffffffffffffffffffffffffffffffffff1681526020019081526020016000208481548110612c8a57fe5b9060005260206000209060030201600201600084815260200190815260200160002060000181905550505050565b60036020528060005260406000206000915090508060000160009054906101000a900460ff16908060010154908060020154905083565b60046020528060005260406000206000915090508060000160009054906101000a900460ff16908060010154905082565b60011515600360003373ffffffffffffffffffffffffffffffffffffffff1673ffffffffffffffffffffffffffffffffffffffff16815260200190815260200160002060000160009054906101000a900460ff16151514612de9576040517f08c379a000000000000000000000000000000000000000000000000000000000815260040180806020018281038252600c8152602001807f4e6f7420616e206f776e6572000000000000000000000000000000000000000081525060200191505060405180910390fd5b612df161313c565b828160000181905250818160200181905250600560003373ffffffffffffffffffffffffffffffffffffffff1673ffffffffffffffffffffffffffffffffffffffff16815260200190815260200160002081908060018154018082558091505090600182039060005260206000209060030201600090919290919091506000820151816000019080519060200190612e8a929190613156565b506020820151816001019080519060200190612ea7929190613156565b505050507fcd711cf03268663b6768b79e26d933c170ef96bb54f6300619e866b34a0a1376338484604051808473ffffffffffffffffffffffffffffffffffffffff1673ffffffffffffffffffffffffffffffffffffffff1681526020018060200180602001838103835285818151815260200191508051906020019080838360005b83811015612f45578082015181840152602081019050612f2a565b50505050905090810190601f168015612f725780820380516001836020036101000a031916815260200191505b50838103825284818151815260200191508051906020019080838360005b83811015612fab578082015181840152602081019050612f90565b50505050905090810190601f168015612fd85780820380516001836020036101000a031916815260200191505b509550505050505060405180910390a1505050565b828054600181600116156101000203166002900490600052602060002090601f016020900481019282601f1061302e57805160ff191683800117855561305c565b8280016001018555821561305c579182015b8281111561305b578251825591602001919060010190613040565b5b50905061306991906131d6565b5090565b50805460018160011615610100020316600290046000825580601f1061309357506130b2565b601f0160209004906000526020600020908101906130b191906131d6565b5b50565b828054600181600116156101000203166002900490600052602060002090601f016020900481019282601f106130ee578054855561312b565b8280016001018555821561312b57600052602060002091601f016020900482015b8281111561312a57825482559160010191906001019061310f565b5b50905061313891906131d6565b5090565b604051806040016040528060608152602001606081525090565b828054600181600116156101000203166002900490600052602060002090601f016020900481019282601f1061319757805160ff19168380011785556131c5565b828001600101855582156131c5579182015b828111156131c45782518255916020019190600101906131a9565b5b5090506131d291906131d6565b5090565b6131f891905b808211156131f45760008160009055506001016131dc565b5090565b9056fea265627a7a723158205cb485767a3c622f666410cb6e293bde807244360a1754851d1b3b105beb665864736f6c634300050c0032",
  "source": "pragma solidity >=0.4.21 <0.7.0;\r\n\r\n/// @title A marketplace for the sale of goods\r\n/// @author Craig DuBose\r\n/// @notice This contract is incomplete and is only intended to fulfil the bare requirements\r\n/// @notice of the Consensys Developer Bootcamp course\r\n/// @dev This contract is far from finished. Although a lot of the basics are in place, there are plenty more\r\n/// @dev require statements needed to ensure that the functions only accept valid inputs. It is missing lots of\r\n/// @dev events that would be needed to update the UI effectively. And frankly, I think that a lot of the state\r\n/// @dev variables are unnecessary. I do use them to show functionality, but it's more likley that if I had more time\r\n/// @dev I would ditch all state variables except for the originator address, owner address=>bool, and admin\r\n/// @dev address=>bool. I need those to validate the isOriginator, isOwner, and isAdmin function modifiers.\r\n/// @dev Everything else I would emit as an event and store those in data structures in the Javascript.\r\n/// @dev Essentially, you should set this contract on fire and run away with all haste.\r\n\r\nimport './LibraryDemo.sol';\r\n\r\ncontract Marketplace\r\n{\r\n    /// @dev  Product is a struct that includes the price, description, and quantity\r\n\r\n    struct Product\r\n    {\r\n        uint price;\r\n        string description;\r\n        uint qty;\r\n    }\r\n\r\n    /// @dev  Store is a struct that includes the name, description, and skuToProduct mapping\r\n\r\n    struct Store\r\n    {\r\n        string name;\r\n        string description;\r\n        mapping (uint => Product) skuToProducts;\r\n    }\r\n\r\n    /// @dev  OwnerInfo is a struct that is used in the mapping (address => OwnerInfo) public ownerMapping.\r\n    /// @dev  The ownerOrNot bool describes if that address is an owner, the arrayIndex uint describes it's position\r\n    /// @dev  in the owner array, and the balance uint describes how much of the marketplace contract ether is owned.\r\n\r\n    struct OwnerInfo\r\n    {\r\n        bool ownerOrNot;\r\n        uint arrayIndex;\r\n        uint balance;\r\n    }\r\n\r\n    /// @dev  AdminInfo is a struct that is used in the mapping (address => AdminInfo) public AdminMapping.\r\n    /// @dev  The adminOrNot bool describes if that address is an admin. The arrayIndex uint describes it's position\r\n    /// @dev  in the owner array which is needed when removing the address from the array.\r\n\r\n    struct AdminInfo\r\n    {\r\n        bool adminOrNot;\r\n        uint arrayIndex;\r\n    }\r\n\r\n    /// @dev  originatorAddress is the address that originally deployed the contract and created the marketplace\r\n    /// @dev  It is the only address able to add and remove admins\r\n\r\n    address private originatorAddress;\r\n\r\n    /// @dev  The stopped bool is used in the stopInEmergency modifier. It starts as false and can be toggled by the\r\n    /// @dev  originator using the toggleContractActive function. It is used in the stopInEmergency modifier which\r\n    /// @dev  is only used on the withdrawContractBalance function.\r\n\r\n    bool private stopped = false;\r\n\r\n    /// @dev  The stopInEmergency modifier is only used on the withdrawContractBalance function as a circuit breaker.\r\n\r\n    modifier stopInEmergency()\r\n    {\r\n        if (!stopped)\r\n        _;\r\n    }\r\n\r\n    /// @dev  The toggleContractActive function toggles the stopped bool used in the stopInEmergency modifier. It can\r\n    /// @dev  only be accessed by the originator.\r\n\r\n    function toggleContractActive()\r\n    public\r\n    isOriginator\r\n    {\r\n        stopped = !stopped;\r\n    }\r\n\r\n    /// @dev  adminArray is an array of admin addresses.\r\n\r\n    address[] adminArray;\r\n\r\n    /// @dev  ownerArray is an array of owner addresses.\r\n\r\n    address[] ownerArray;\r\n\r\n    /// @dev  ownerMapping is a mapping to determine the addresses of valid owners instead of iterating\r\n    /// @dev  through the ownerArray\r\n\r\n    mapping (address => OwnerInfo) public ownerMapping;\r\n\r\n    /// @dev  adminMapping is a mapping to determine the addresses of valid admins instead of iterating\r\n    /// @dev  through the adminArray\r\n\r\n    mapping (address => AdminInfo) public adminMapping;\r\n\r\n    /// @dev  ownersToStores is a mapping to associate the owner address with an array of Stores structs\r\n\r\n    mapping (address => Store[]) ownersToStores;\r\n\r\n    /// @dev  isOwner is used to restrict access on functions to only owners\r\n\r\n    modifier isOwner()\r\n    {\r\n        require (ownerMapping[msg.sender].ownerOrNot == true, 'Not an owner');\r\n        _;\r\n    }\r\n\r\n    /// @dev  isOriginator is used to restrict access on functions to only the originator\r\n\r\n    modifier isOriginator()\r\n    {\r\n        require (originatorAddress == msg.sender, 'Not the originator');\r\n        _;\r\n    }\r\n\r\n    /// @dev  isAdmin is used to restrict access on functions to only admins\r\n\r\n    modifier isAdmin()\r\n    {\r\n        require (adminMapping[msg.sender].adminOrNot == true, 'Not an admin');\r\n        _;\r\n    }\r\n\r\n    /// @dev  storeCreated event is emitted when a store struct is created and is used to update the UI\r\n\r\n    event storeCreated(address owner, string name, string description);\r\n\r\n    /// @dev  admindAdded event is emitted when an admin is added and is used to update the UI\r\n\r\n    event adminAdded(address newAdmin);\r\n\r\n    /// @dev  productBought event is emitted when a product is purchased and is used to update the UI\r\n\r\n    event productBought(address storeOwner, uint store, uint sku, uint qty);\r\n\r\n    /// @dev  constructor function assigns the address of the original deployer of the function as the originator\r\n\r\n    constructor ()\r\n    public\r\n    {\r\n        originatorAddress = msg.sender;\r\n    }\r\n\r\n    /// @dev  getSum function is used to demonstrate the example library that I included to meet the project\r\n    /// @dev  requirements. I suppose it's worth mentioning that the input isn't controlled so there is the\r\n    /// @dev  opportunity for the user to overflow the result. This function is part of the Truffle tests.\r\n    /// @param  _num1 is any uint\r\n    /// @param  _num2 is any uint\r\n    /// @return  a uint that is the sum of num1 and num2\r\n\r\n    function getSum(uint _num1, uint _num2)\r\n    public\r\n    pure\r\n    returns (uint)\r\n    {\r\n        return LibraryDemo.addTwoNumbers(_num1, _num2);\r\n    }\r\n\r\n    /// @dev  getOwnerArrayMapping function is used to test if the mapping was correctly written when an\r\n    /// @dev  owner is added. This is only for development purposes.\r\n    /// @param  _ownerAddress is the address of the owner for which you would like to check the ownerMapping\r\n    /// @return  ownerOrNot is a bool of whether the address is an owner or not\r\n    /// @return  arrayIndex is a uint that describes the index position of the owner address in the ownerArray\r\n\r\n    function getOwnerArrayMapping(address _ownerAddress)\r\n    public\r\n    view\r\n    isAdmin\r\n    returns (bool ownerOrNot, uint arrayIndex)\r\n    {\r\n        ownerOrNot = ownerMapping[_ownerAddress].ownerOrNot;\r\n        arrayIndex = ownerMapping[_ownerAddress].arrayIndex;\r\n\r\n        return (ownerOrNot, arrayIndex);\r\n    }\r\n\r\n    /// @dev  getOwnerArray function is used to pass the ownerArray to the UI for display purposes.\r\n    /// @return  ownerArray is an array of all of the owners in the contract account\r\n\r\n    function getOwnerArray()\r\n    public\r\n    view\r\n    isAdmin\r\n    returns (address[] memory)\r\n    {\r\n        return ownerArray;\r\n    }\r\n\r\n    /// @dev  getAdminArrayMapping function is used to test if the mapping was correctly written when an\r\n    /// @dev  admin is added. This is only for development purposes.\r\n    /// @param  _adminAddress is the address of the owner for which you would like to check the adminMapping\r\n    /// @return  adminOrNot is a bool of whether the address is an admin or not\r\n    /// @return  arrayIndex is a uint that describes the index position of the admin address in the adminArray\r\n\r\n    function getAdminArrayMapping(address _adminAddress)\r\n    public\r\n    view\r\n    isOriginator\r\n    returns (bool adminOrNot, uint arrayIndex)\r\n    {\r\n        adminOrNot = adminMapping[_adminAddress].adminOrNot;\r\n        arrayIndex = adminMapping[_adminAddress].arrayIndex;\r\n    }\r\n\r\n    /// @dev  getAdminArray function is used to pass the adminArray to the UI for display purposes.\r\n    /// @return  adminArray is an array of all of the admins in the contract account\r\n\r\n    function getAdminArray()\r\n    public\r\n    view\r\n    isOriginator\r\n    returns (address[] memory)\r\n    {\r\n        return adminArray;\r\n    }\r\n\r\n    /// @dev  addOwner function is used to add an address to the ownerArray, set ownerMapping bool to true,\r\n    /// @dev  and set ownerMapping index.\r\n    /// @param  _newOwnerAddress is the address of the owner to add\r\n\r\n    function addOwner (address _newOwnerAddress)\r\n    public\r\n    isAdmin\r\n    {\r\n        // Adding current length of 'ownerArray' array to 'ownerMapping' mapping (OwnerInfo struct)\r\n        // I can use the length because that is what the index will be once added to the\r\n        // 'owner' array. The index is required for the 'removeOwner' function.\r\n        ownerMapping[_newOwnerAddress].arrayIndex = ownerArray.length;\r\n\r\n        // Changing 'ownerMapping' mapping to true for this address\r\n        ownerMapping[_newOwnerAddress].ownerOrNot = true;\r\n\r\n        // Pushing new owner address onto 'ownerArray' array\r\n        ownerArray.push(_newOwnerAddress);\r\n    }\r\n\r\n    /// @dev  removeOwner function is used to remove an address from the ownerArray and set ownerMapping bool to false.\r\n    /// @param  _currentOwnerAddress is the address of the owner to remove\r\n\r\n    function removeOwner (address _currentOwnerAddress)\r\n    public\r\n    isAdmin\r\n    {\r\n        ownerMapping[_currentOwnerAddress].ownerOrNot = false;\r\n\r\n        ownerArray[ownerMapping[_currentOwnerAddress].arrayIndex] = ownerArray[ownerArray.length-1];\r\n        delete ownerArray[ownerArray.length-1];\r\n        ownerArray.pop();\r\n    }\r\n\r\n    /// @dev  addAdmin function is used to add an address to the adminArray, set adminMapping bool to true,\r\n    /// @dev  and set adminMapping index.\r\n    /// @param  _newAdminAddress is the address of the admin to add\r\n\r\n    function addAdmin (address _newAdminAddress)\r\n    public\r\n    isOriginator\r\n    {\r\n        // Adding current length of 'owner' array to 'owners' mapping (OwnerInfo struct)\r\n        // I can use the length because that is what the index will be once added to the\r\n        // 'owner' array. The index is required for the 'removeOwner' function.\r\n        adminMapping[_newAdminAddress].arrayIndex = adminArray.length;\r\n\r\n        // Changing 'adminMapping' mapping to true for this address\r\n        adminMapping[_newAdminAddress].adminOrNot = true;\r\n\r\n        // Pushing new admin address onto 'adminArray' array\r\n        adminArray.push(_newAdminAddress);\r\n\r\n        emit adminAdded(_newAdminAddress);\r\n\r\n    }\r\n\r\n    /// @dev  removeAdmin function is used to remove an address from the adminArray and set adminMapping bool to false.\r\n    /// @param  _currentAdminAddress is the address of the admin to remove\r\n\r\n    function removeAdmin (address _currentAdminAddress)\r\n        public\r\n        isOriginator\r\n    {\r\n        adminMapping[_currentAdminAddress].adminOrNot = false;\r\n\r\n        adminArray[adminMapping[_currentAdminAddress].arrayIndex] = adminArray[adminArray.length-1];\r\n        delete adminArray[adminArray.length-1];\r\n        adminArray.pop();\r\n    }\r\n\r\n    /// @dev  addStore function is used to add a store to the store array in the ownersToStores mapping.\r\n    /// @dev  The storeCreated event is emitted to update the UI.\r\n    /// @param  _name is name of the store\r\n    /// @param  _description is a description of the store\r\n\r\n    function addStore (string memory _name, string memory _description)\r\n    public\r\n    isOwner\r\n    {\r\n        Store memory tempStore;\r\n\r\n        tempStore.name = _name;\r\n        tempStore.description = _description;\r\n\r\n        ownersToStores[msg.sender].push(tempStore);\r\n\r\n        emit storeCreated(msg.sender, _name, _description);\r\n    }\r\n\r\n    /// @dev  removeStore function is used to remove a store from the store array in the ownersToStores mapping.\r\n    /// @dev  There should be a storeRemoved event, but I didn't have time. The transaction sender (owner) can only\r\n    /// @dev  access their own store array. In fact, the admins can't remove stores. Now that I think\r\n    /// @dev  about it, although the admins can remove owners, the stores of the removed owners will still exist in\r\n    /// @dev  the ownersToStores mapping. I don't have time to address this.\r\n    /// @param  _removeStoreIndex is index of the store in the store array in the ownersToStores mapping.\r\n\r\n    function removeStore (uint _removeStoreIndex)\r\n    public\r\n    isOwner\r\n    {\r\n\r\n        if ((_removeStoreIndex == 0) && (ownersToStores[msg.sender].length == 1))\r\n        {\r\n            delete ownersToStores[msg.sender][_removeStoreIndex];\r\n            ownersToStores[msg.sender].pop();\r\n        }\r\n        else\r\n        {\r\n            ownersToStores[msg.sender][_removeStoreIndex] = ownersToStores[msg.sender][ownersToStores[msg.sender].length-1];\r\n            delete ownersToStores[msg.sender][ownersToStores[msg.sender].length-1];\r\n            ownersToStores[msg.sender].pop();\r\n        }\r\n    }\r\n\r\n    function getStoreArrayLength()\r\n    public\r\n    view\r\n    isAdmin\r\n    returns (uint)\r\n    {\r\n        return ownersToStores[msg.sender].length;\r\n    }\r\n\r\n    function addProduct (uint _storeIndex, uint _sku, string memory _description, uint _price,uint _qty)\r\n    public\r\n    isOwner\r\n    {\r\n        //ownersToStores[msg.sender] is equal to array of Storefronts\r\n        // user provides _storeIndex to determine which store to add product\r\n        // user provides _sku for key value of mapping and Product struct is the value\r\n\r\n        ownersToStores[msg.sender][_storeIndex].skuToProducts[_sku].description = _description;\r\n        ownersToStores[msg.sender][_storeIndex].skuToProducts[_sku].price = _price;\r\n        ownersToStores[msg.sender][_storeIndex].skuToProducts[_sku].qty = _qty;\r\n    }\r\n\r\n    function viewProduct (uint _storeIndex, uint _sku)\r\n    public\r\n    view\r\n    isOwner\r\n    returns (string memory, uint, uint)\r\n    {\r\n        //ownersToStores[msg.sender] is equal to array of Storefronts\r\n        // user provides _storeIndex to determine which store to add product\r\n        // user provides _sku for key value of mapping and Product struct is the value\r\n\r\n        string memory tempDescription = ownersToStores[msg.sender][_storeIndex].skuToProducts[_sku].description;\r\n        uint tempPrice = ownersToStores[msg.sender][_storeIndex].skuToProducts[_sku].price;\r\n        uint tempQty = ownersToStores[msg.sender][_storeIndex].skuToProducts[_sku].qty;\r\n\r\n        return (tempDescription, tempPrice, tempQty);\r\n    }\r\n\r\n    function removeProduct (uint _storeIndex, uint _sku)\r\n    public\r\n    isOwner\r\n    {\r\n        //ownersToStores[msg.sender] is equal to array of Storefronts\r\n        // user provides _storeIndex to determine which store to add product\r\n        // user provides _sku for key value of mapping and Product struct is the value\r\n\r\n        ownersToStores[msg.sender][_storeIndex].skuToProducts[_sku].description = '';\r\n        ownersToStores[msg.sender][_storeIndex].skuToProducts[_sku].price = 0;\r\n        ownersToStores[msg.sender][_storeIndex].skuToProducts[_sku].qty = 0;\r\n    }\r\n\r\n    function changeProductPrice (uint _storeIndex, uint _sku, uint _newPrice)\r\n    public\r\n    isOwner\r\n    {\r\n        //ownersToStores[msg.sender] is equal to array of Storefronts\r\n        // user provides _storeIndex to determine which store to add product\r\n        // user provides _sku for key value of mapping and Product struct is the value\r\n\r\n        ownersToStores[msg.sender][_storeIndex].skuToProducts[_sku].price = _newPrice;\r\n    }\r\n\r\n    function buyProduct (address payable _storeOwner, uint _storeIndex, uint _sku, uint _qty)\r\n    public\r\n    payable\r\n    {\r\n        //ownersToStores[msg.sender] is equal to array of Storefronts\r\n        // user provides _storeIndex to determine which store to add product\r\n        // user provides _sku for key value of mapping and Product struct is the value\r\n\r\n        //require (msg.value >= ownersToStores[_storeOwner][_storeIndex].skuToProducts[_sku].price, 'not enough ether');\r\n\r\n        ownersToStores[_storeOwner][_storeIndex].skuToProducts[_sku].qty -= _qty;\r\n        ownerMapping[_storeOwner].balance += msg.value;\r\n\r\n        emit productBought (_storeOwner, _storeIndex, _sku, _qty);\r\n    }\r\n\r\n    function viewOwnerContractBalance()\r\n    public\r\n    view\r\n    isOwner\r\n        returns (uint)\r\n    {\r\n        //ownersToStores[msg.sender] is equal to array of Storefronts\r\n        // user provides _storeIndex to determine which store to add product\r\n        // user provides _sku for key value of mapping and Product struct is the value\r\n\r\n        uint tempBalance = ownerMapping[msg.sender].balance;\r\n\r\n        return tempBalance;\r\n    }\r\n\r\n    function withdrawContractBalance()\r\n    public\r\n    payable\r\n    isOwner\r\n    stopInEmergency\r\n    {\r\n        //ownersToStores[msg.sender] is equal to array of Storefronts\r\n        // user provides _storeIndex to determine which store to add product\r\n        // user provides _sku for key value of mapping and Product struct is the value\r\n        uint tempBalance = ownerMapping[msg.sender].balance;\r\n        ownerMapping[msg.sender].balance = 0;\r\n\r\n        // shouldn't rely on gas cost of .transfer\r\n        msg.sender.transfer(tempBalance);\r\n    }\r\n\r\n}",
  "sourcePath": "C:/Users/cjd9s/OneDrive/Documents/Ethereum/FinalProject/contracts/Marketplace.sol",
  "compiler": {
    "name": "solc",
    "version": "0.5.12+commit.7709ece9.Emscripten.clang"
  },
  "schemaVersion": "3.0.20",
  "updatedAt": "2020-02-01T07:58:37.063Z",
  "networkType": "ethereum",
  "devdoc": {
    "methods": {
      "addAdmin(address)": {
        "details": "addAdmin function is used to add an address to the adminArray, set adminMapping bool to true,and set adminMapping index.",
        "params": {
          "_newAdminAddress": "is the address of the admin to add"
        }
      },
      "addOwner(address)": {
        "details": "addOwner function is used to add an address to the ownerArray, set ownerMapping bool to true,and set ownerMapping index.",
        "params": {
          "_newOwnerAddress": "is the address of the owner to add"
        }
      },
      "addStore(string,string)": {
        "details": "addStore function is used to add a store to the store array in the ownersToStores mapping.The storeCreated event is emitted to update the UI.",
        "params": {
          "_description": "is a description of the store",
          "_name": "is name of the store"
        }
      },
      "constructor": {
        "details": "constructor function assigns the address of the original deployer of the function as the originator"
      },
      "getAdminArray()": {
        "details": "getAdminArray function is used to pass the adminArray to the UI for display purposes.",
        "return": "adminArray is an array of all of the admins in the contract account"
      },
      "getAdminArrayMapping(address)": {
        "details": "getAdminArrayMapping function is used to test if the mapping was correctly written when anadmin is added. This is only for development purposes.",
        "params": {
          "_adminAddress": "is the address of the owner for which you would like to check the adminMapping"
        },
        "return": "adminOrNot is a bool of whether the address is an admin or notarrayIndex is a uint that describes the index position of the admin address in the adminArray"
      },
      "getOwnerArray()": {
        "details": "getOwnerArray function is used to pass the ownerArray to the UI for display purposes.",
        "return": "ownerArray is an array of all of the owners in the contract account"
      },
      "getOwnerArrayMapping(address)": {
        "details": "getOwnerArrayMapping function is used to test if the mapping was correctly written when anowner is added. This is only for development purposes.",
        "params": {
          "_ownerAddress": "is the address of the owner for which you would like to check the ownerMapping"
        },
        "return": "ownerOrNot is a bool of whether the address is an owner or notarrayIndex is a uint that describes the index position of the owner address in the ownerArray"
      },
      "getSum(uint256,uint256)": {
        "details": "getSum function is used to demonstrate the example library that I included to meet the projectrequirements. I suppose it's worth mentioning that the input isn't controlled so there is theopportunity for the user to overflow the result. This function is part of the Truffle tests.",
        "params": {
          "_num1": "is any uint",
          "_num2": "is any uint"
        },
        "return": "a uint that is the sum of num1 and num2"
      },
      "removeAdmin(address)": {
        "details": "removeAdmin function is used to remove an address from the adminArray and set adminMapping bool to false.",
        "params": {
          "_currentAdminAddress": "is the address of the admin to remove"
        }
      },
      "removeOwner(address)": {
        "details": "removeOwner function is used to remove an address from the ownerArray and set ownerMapping bool to false.",
        "params": {
          "_currentOwnerAddress": "is the address of the owner to remove"
        }
      },
      "removeStore(uint256)": {
        "details": "removeStore function is used to remove a store from the store array in the ownersToStores mapping.There should be a storeRemoved event, but I didn't have time. The transaction sender (owner) can onlyaccess their own store array. In fact, the admins can't remove stores. Now that I thinkabout it, although the admins can remove owners, the stores of the removed owners will still exist inthe ownersToStores mapping. I don't have time to address this.",
        "params": {
          "_removeStoreIndex": "is index of the store in the store array in the ownersToStores mapping."
        }
      },
      "toggleContractActive()": {
        "details": "The toggleContractActive function toggles the stopped bool used in the stopInEmergency modifier. It canonly be accessed by the originator."
      }
    }
  },
  "userdoc": {
    "methods": {}
  }
}